{"abi":[{"type":"constructor","inputs":[{"name":"_eas","type":"address","internalType":"contract IEAS"}],"stateMutability":"nonpayable"},{"type":"function","name":"arbitrate","inputs":[{"name":"obligation","type":"bytes32","internalType":"bytes32"},{"name":"decision","type":"bool","internalType":"bool"}],"outputs":[],"stateMutability":"nonpayable"},{"type":"function","name":"checkObligation","inputs":[{"name":"obligation","type":"tuple","internalType":"struct Attestation","components":[{"name":"uid","type":"bytes32","internalType":"bytes32"},{"name":"schema","type":"bytes32","internalType":"bytes32"},{"name":"time","type":"uint64","internalType":"uint64"},{"name":"expirationTime","type":"uint64","internalType":"uint64"},{"name":"revocationTime","type":"uint64","internalType":"uint64"},{"name":"refUID","type":"bytes32","internalType":"bytes32"},{"name":"recipient","type":"address","internalType":"address"},{"name":"attester","type":"address","internalType":"address"},{"name":"revocable","type":"bool","internalType":"bool"},{"name":"data","type":"bytes","internalType":"bytes"}]},{"name":"demand","type":"bytes","internalType":"bytes"},{"name":"","type":"bytes32","internalType":"bytes32"}],"outputs":[{"name":"","type":"bool","internalType":"bool"}],"stateMutability":"view"},{"type":"function","name":"decodeDemandData","inputs":[{"name":"data","type":"bytes","internalType":"bytes"}],"outputs":[{"name":"","type":"tuple","internalType":"struct TrustedOracleArbiter.DemandData","components":[{"name":"oracle","type":"address","internalType":"address"},{"name":"data","type":"bytes","internalType":"bytes"}]}],"stateMutability":"pure"},{"type":"function","name":"requestArbitration","inputs":[{"name":"_obligation","type":"bytes32","internalType":"bytes32"},{"name":"oracle","type":"address","internalType":"address"}],"outputs":[],"stateMutability":"nonpayable"},{"type":"event","name":"ArbitrationMade","inputs":[{"name":"obligation","type":"bytes32","indexed":true,"internalType":"bytes32"},{"name":"oracle","type":"address","indexed":true,"internalType":"address"},{"name":"decision","type":"bool","indexed":false,"internalType":"bool"}],"anonymous":false},{"type":"event","name":"ArbitrationRequested","inputs":[{"name":"obligation","type":"bytes32","indexed":true,"internalType":"bytes32"},{"name":"oracle","type":"address","indexed":true,"internalType":"address"}],"anonymous":false},{"type":"error","name":"UnauthorizedArbitrationRequest","inputs":[]}],"bytecode":{"object":"0x608034606f57601f61088338819003918201601f19168301916001600160401b03831184841017607357808492602094604052833981010312606f57516001600160a01b03811690819003606f575f80546001600160a01b0319169190911790556040516107fb90816100888239f35b5f80fd5b634e487b7160e01b5f52604160045260245ffdfe6080806040526004361015610012575f80fd5b5f3560e01c908163838a68d914610550575080638c08667e146104dd578063e6c9714d1461022c5763ef9fb71d14610048575f80fd5b3461021d57604036600319011261021d576024356001600160a01b038116906004359082900361021d575f80546040516328c44a9960e21b8152600481018490529190829060249082906001600160a01b03165afa908115610221575f91610116575b5060e08101516001600160a01b031633141590816100fe575b506100ef577f4a55e4a537f0b657a8b464f243ae30dd8404841df3956cceee1aabac341d382f5f80a3005b63ff323ecb60e01b5f5260045ffd5b60c001516001600160a01b031633141590505f6100c4565b90503d805f833e61012781836106a0565b81019060208183031261021d578051906001600160401b03821161021d5701906101408282031261021d576040519161015f83610684565b8051835260208101516020840152610179604082016107b1565b604084015261018a606082016107b1565b606084015261019b608082016107b1565b608084015260a081015160a08401526101b660c0820161074a565b60c08401526101c760e0820161074a565b60e0840152610100810151801515810361021d57610100840152610120810151906001600160401b03821161021d57019080601f8301121561021d5781516102119260200161075e565b6101208201525f6100ab565b5f80fd5b6040513d5f823e3d90fd5b3461021d57606036600319011261021d576004356001600160401b03811161021d57610140600319823603011261021d576040519061026a82610684565b8060040135825260248101356020830152610287604482016106c1565b6040830152610298606482016106c1565b60608301526102a9608482016106c1565b608083015260a481013560a08301526102c460c482016106d5565b60c08301526102d560e482016106d5565b60e0830152610104810135801515810361021d57610100830152610124810135906001600160401b03821161021d5760046103139236920101610704565b6101208201526024356001600160401b03811161021d57610338903690600401610704565b8051810190602082019060208184031261021d576020810151906001600160401b03821161021d57019160a0908390031261021d576040519160a083018381106001600160401b038211176104c9576040526103966020820161074a565b835260408101516001600160401b03811161021d578260206103ba92840101610794565b602084015260608101516001600160401b03811161021d578260206103e192840101610794565b60408401526080810151600281101561021d57606084015260a08101516001600160401b03811161021d5760209101019080601f8301121561021d578151916001600160401b0383116104c9578260051b906040519361044460208401866106a0565b84526020808501928201019183831161021d5760208201905b83821061049c57878787608082015260018060a01b039051165f52600160205260405f2090515f52602052602060ff60405f2054166040519015158152f35b81516001600160401b03811161021d576020916104be87848094880101610794565b81520191019061045d565b634e487b7160e01b5f52604160045260245ffd5b3461021d57604036600319011261021d576004356024359081151580920361021d57335f52600160205260405f20815f5260205260405f2060ff1981541660ff84161790556040519182527f17b56dd782cd998b68e9b95d1fc547096b22671d6848644badf18d515329792760203393a3005b3461021d57602036600319011261021d576004356001600160401b03811161021d573660238201121561021d5780600401356001600160401b03811161021d57810190602482019236841161021d576020816105ad606093610669565b5f8152015260208183031261021d576024810135906001600160401b03821161021d5701906040908290031261021d57604051916105ea83610669565b6105f6602483016106d5565b83526044820135906001600160401b03821161021d57602461061c926080940101610704565b9160208101928352602060405193849282845260018060a01b0390511682840152516040808401528051918291826060860152018484015e5f828201840152601f01601f19168101030190f35b604081019081106001600160401b038211176104c957604052565b61014081019081106001600160401b038211176104c957604052565b90601f801991011681019081106001600160401b038211176104c957604052565b35906001600160401b038216820361021d57565b35906001600160a01b038216820361021d57565b6001600160401b0381116104c957601f01601f191660200190565b81601f8201121561021d5780359061071b826106e9565b9261072960405194856106a0565b8284526020838301011161021d57815f926020809301838601378301015290565b51906001600160a01b038216820361021d57565b92919261076a826106e9565b9161077860405193846106a0565b82948184528183011161021d578281602093845f96015e010152565b9080601f8301121561021d5781516107ae9260200161075e565b90565b51906001600160401b038216820361021d5756fea26469706673582212200d1359aadec1b0a344299bd56e91eb2656b8db60b1170f9940c8182e763ca0f664736f6c634300081b0033","linkReferences":{}},"methodIdentifiers":{"arbitrate(bytes32,bool)":"8c08667e","checkObligation((bytes32,bytes32,uint64,uint64,uint64,bytes32,address,address,bool,bytes),bytes,bytes32)":"e6c9714d","decodeDemandData(bytes)":"838a68d9","requestArbitration(bytes32,address)":"ef9fb71d"},"id":49}