{"abi":[{"type":"constructor","inputs":[{"name":"_baseStatement","type":"address","internalType":"contract ERC20PaymentObligation"}],"stateMutability":"nonpayable"},{"type":"function","name":"checkStatement","inputs":[{"name":"statement","type":"tuple","internalType":"struct Attestation","components":[{"name":"uid","type":"bytes32","internalType":"bytes32"},{"name":"schema","type":"bytes32","internalType":"bytes32"},{"name":"time","type":"uint64","internalType":"uint64"},{"name":"expirationTime","type":"uint64","internalType":"uint64"},{"name":"revocationTime","type":"uint64","internalType":"uint64"},{"name":"refUID","type":"bytes32","internalType":"bytes32"},{"name":"recipient","type":"address","internalType":"address"},{"name":"attester","type":"address","internalType":"address"},{"name":"revocable","type":"bool","internalType":"bool"},{"name":"data","type":"bytes","internalType":"bytes"}]},{"name":"demand","type":"bytes","internalType":"bytes"},{"name":"counteroffer","type":"bytes32","internalType":"bytes32"}],"outputs":[{"name":"","type":"bool","internalType":"bool"}],"stateMutability":"view"},{"type":"function","name":"paymentStatement","inputs":[],"outputs":[{"name":"","type":"address","internalType":"contract ERC20PaymentObligation"}],"stateMutability":"view"},{"type":"error","name":"InvalidStatement","inputs":[]},{"type":"error","name":"InvalidValidation","inputs":[]}],"bytecode":{"object":"0x60a034606c57601f61056238819003918201601f19168301916001600160401b03831184841017607057808492602094604052833981010312606c57516001600160a01b0381168103606c576080526040516104dd90816100858239608051818181604701526101fe0152f35b5f80fd5b634e487b7160e01b5f52604160045260245ffdfe6080806040526004361015610012575f80fd5b5f3560e01c9081631272ff8b1461007a5750634bbf918d14610032575f80fd5b34610076575f366003190112610076576040517f00000000000000000000000000000000000000000000000000000000000000006001600160a01b03168152602090f35b5f80fd5b346100765760603660031901126100765760043567ffffffffffffffff811161007657610140600319823603011261007657610140820182811067ffffffffffffffff82111761037a57604052806004013582526020820191602482013583526100e660448301610408565b60408201526100f760648301610408565b916060820192835261010b60848201610408565b608083015260a082019060a4810135825261012860c4820161041d565b60c084015261013960e4820161041d565b60e084015261010481013580151581036100765761010084015261012481013567ffffffffffffffff81116100765761012091600461017b923692010161044d565b920191825260243567ffffffffffffffff8111610076576101a090369060040161044d565b926040848051810103126100765760405193604085019085821067ffffffffffffffff83111761037a5760409182526101db60208201610493565b8652015160208086019182529551604051635bf2f20d60e01b81529196826004817f00000000000000000000000000000000000000000000000000000000000000006001600160a01b03165afa9182156103db575f926103a7575b500361038e575167ffffffffffffffff16801515908161039d575b5061038e5760443590510361036b575190815182019160208301906020818503126100765760208101519067ffffffffffffffff82116100765701926080908490031261007657604051906080820182811067ffffffffffffffff82111761037a576040526102c260208501610493565b8252604084015193602083019485526102dd60608201610493565b6040840152608081015167ffffffffffffffff811161007657602091010181601f820112156100765780519061031282610431565b9261032060405194856103e6565b8284526020838301011161007657815f9260208093018386015e8301015260608201525190516001600160a01b0391821691160361036b575190511161036b57602060405160018152f35b634af2691560e01b5f5260045ffd5b634e487b7160e01b5f52604160045260245ffd5b63090bd44d60e31b5f5260045ffd5b9050421185610251565b9091506020813d6020116103d3575b816103c3602093836103e6565b8101031261007657519087610236565b3d91506103b6565b6040513d5f823e3d90fd5b90601f8019910116810190811067ffffffffffffffff82111761037a57604052565b359067ffffffffffffffff8216820361007657565b35906001600160a01b038216820361007657565b67ffffffffffffffff811161037a57601f01601f191660200190565b81601f820112156100765780359061046482610431565b9261047260405194856103e6565b8284526020838301011161007657815f926020809301838601378301015290565b51906001600160a01b03821682036100765756fea26469706673582212208b779a8082b45741c2db66ac8bd4af7ab86bdfd19a1c37233494f3b65845fedb64736f6c634300081a0033","linkReferences":{}},"methodIdentifiers":{"checkStatement((bytes32,bytes32,uint64,uint64,uint64,bytes32,address,address,bool,bytes),bytes,bytes32)":"1272ff8b","paymentStatement()":"4bbf918d"},"id":57}