{
	"abi": [
		{
			"type": "constructor",
			"inputs": [
				{
					"name": "_eas",
					"type": "address",
					"internalType": "contract IEAS"
				},
				{
					"name": "_erc20Escrow",
					"type": "address",
					"internalType": "contract ERC20EscrowObligation"
				},
				{
					"name": "_erc20Payment",
					"type": "address",
					"internalType": "contract ERC20PaymentObligation"
				},
				{
					"name": "_erc721Escrow",
					"type": "address",
					"internalType": "contract ERC721EscrowObligation"
				},
				{
					"name": "_erc721Payment",
					"type": "address",
					"internalType": "contract ERC721PaymentObligation"
				},
				{
					"name": "_erc1155Escrow",
					"type": "address",
					"internalType": "contract ERC1155EscrowObligation"
				},
				{
					"name": "_erc1155Payment",
					"type": "address",
					"internalType": "contract ERC1155PaymentObligation"
				},
				{
					"name": "_bundleEscrow",
					"type": "address",
					"internalType": "contract TokenBundleEscrowObligation"
				},
				{
					"name": "_bundlePayment",
					"type": "address",
					"internalType": "contract TokenBundlePaymentObligation"
				}
			],
			"stateMutability": "nonpayable"
		},
		{
			"type": "function",
			"name": "buyBundleWithErc20",
			"inputs": [
				{
					"name": "bidToken",
					"type": "address",
					"internalType": "address"
				},
				{
					"name": "bidAmount",
					"type": "uint256",
					"internalType": "uint256"
				},
				{
					"name": "askData",
					"type": "tuple",
					"internalType": "struct TokenBundlePaymentObligation.StatementData",
					"components": [
						{
							"name": "erc20Tokens",
							"type": "address[]",
							"internalType": "address[]"
						},
						{
							"name": "erc20Amounts",
							"type": "uint256[]",
							"internalType": "uint256[]"
						},
						{
							"name": "erc721Tokens",
							"type": "address[]",
							"internalType": "address[]"
						},
						{
							"name": "erc721TokenIds",
							"type": "uint256[]",
							"internalType": "uint256[]"
						},
						{
							"name": "erc1155Tokens",
							"type": "address[]",
							"internalType": "address[]"
						},
						{
							"name": "erc1155TokenIds",
							"type": "uint256[]",
							"internalType": "uint256[]"
						},
						{
							"name": "erc1155Amounts",
							"type": "uint256[]",
							"internalType": "uint256[]"
						},
						{
							"name": "payee",
							"type": "address",
							"internalType": "address"
						}
					]
				},
				{
					"name": "expiration",
					"type": "uint64",
					"internalType": "uint64"
				}
			],
			"outputs": [
				{
					"name": "",
					"type": "bytes32",
					"internalType": "bytes32"
				}
			],
			"stateMutability": "nonpayable"
		},
		{
			"type": "function",
			"name": "buyErc1155WithErc20",
			"inputs": [
				{
					"name": "bidToken",
					"type": "address",
					"internalType": "address"
				},
				{
					"name": "bidAmount",
					"type": "uint256",
					"internalType": "uint256"
				},
				{
					"name": "askToken",
					"type": "address",
					"internalType": "address"
				},
				{
					"name": "askId",
					"type": "uint256",
					"internalType": "uint256"
				},
				{
					"name": "askAmount",
					"type": "uint256",
					"internalType": "uint256"
				},
				{
					"name": "expiration",
					"type": "uint64",
					"internalType": "uint64"
				}
			],
			"outputs": [
				{
					"name": "",
					"type": "bytes32",
					"internalType": "bytes32"
				}
			],
			"stateMutability": "nonpayable"
		},
		{
			"type": "function",
			"name": "buyErc20ForErc20",
			"inputs": [
				{
					"name": "bidToken",
					"type": "address",
					"internalType": "address"
				},
				{
					"name": "bidAmount",
					"type": "uint256",
					"internalType": "uint256"
				},
				{
					"name": "askToken",
					"type": "address",
					"internalType": "address"
				},
				{
					"name": "askAmount",
					"type": "uint256",
					"internalType": "uint256"
				},
				{
					"name": "expiration",
					"type": "uint64",
					"internalType": "uint64"
				}
			],
			"outputs": [
				{
					"name": "",
					"type": "bytes32",
					"internalType": "bytes32"
				}
			],
			"stateMutability": "nonpayable"
		},
		{
			"type": "function",
			"name": "buyErc721WithErc20",
			"inputs": [
				{
					"name": "bidToken",
					"type": "address",
					"internalType": "address"
				},
				{
					"name": "bidAmount",
					"type": "uint256",
					"internalType": "uint256"
				},
				{
					"name": "askToken",
					"type": "address",
					"internalType": "address"
				},
				{
					"name": "askId",
					"type": "uint256",
					"internalType": "uint256"
				},
				{
					"name": "expiration",
					"type": "uint64",
					"internalType": "uint64"
				}
			],
			"outputs": [
				{
					"name": "",
					"type": "bytes32",
					"internalType": "bytes32"
				}
			],
			"stateMutability": "nonpayable"
		},
		{
			"type": "function",
			"name": "payErc20ForBundle",
			"inputs": [
				{
					"name": "buyAttestation",
					"type": "bytes32",
					"internalType": "bytes32"
				}
			],
			"outputs": [
				{
					"name": "",
					"type": "bytes32",
					"internalType": "bytes32"
				}
			],
			"stateMutability": "nonpayable"
		},
		{
			"type": "function",
			"name": "payErc20ForErc1155",
			"inputs": [
				{
					"name": "buyAttestation",
					"type": "bytes32",
					"internalType": "bytes32"
				}
			],
			"outputs": [
				{
					"name": "",
					"type": "bytes32",
					"internalType": "bytes32"
				}
			],
			"stateMutability": "nonpayable"
		},
		{
			"type": "function",
			"name": "payErc20ForErc20",
			"inputs": [
				{
					"name": "buyAttestation",
					"type": "bytes32",
					"internalType": "bytes32"
				}
			],
			"outputs": [
				{
					"name": "",
					"type": "bytes32",
					"internalType": "bytes32"
				}
			],
			"stateMutability": "nonpayable"
		},
		{
			"type": "function",
			"name": "payErc20ForErc721",
			"inputs": [
				{
					"name": "buyAttestation",
					"type": "bytes32",
					"internalType": "bytes32"
				}
			],
			"outputs": [
				{
					"name": "",
					"type": "bytes32",
					"internalType": "bytes32"
				}
			],
			"stateMutability": "nonpayable"
		},
		{
			"type": "function",
			"name": "permitAndBuyBundleWithErc20",
			"inputs": [
				{
					"name": "bidToken",
					"type": "address",
					"internalType": "address"
				},
				{
					"name": "bidAmount",
					"type": "uint256",
					"internalType": "uint256"
				},
				{
					"name": "askData",
					"type": "tuple",
					"internalType": "struct TokenBundlePaymentObligation.StatementData",
					"components": [
						{
							"name": "erc20Tokens",
							"type": "address[]",
							"internalType": "address[]"
						},
						{
							"name": "erc20Amounts",
							"type": "uint256[]",
							"internalType": "uint256[]"
						},
						{
							"name": "erc721Tokens",
							"type": "address[]",
							"internalType": "address[]"
						},
						{
							"name": "erc721TokenIds",
							"type": "uint256[]",
							"internalType": "uint256[]"
						},
						{
							"name": "erc1155Tokens",
							"type": "address[]",
							"internalType": "address[]"
						},
						{
							"name": "erc1155TokenIds",
							"type": "uint256[]",
							"internalType": "uint256[]"
						},
						{
							"name": "erc1155Amounts",
							"type": "uint256[]",
							"internalType": "uint256[]"
						},
						{
							"name": "payee",
							"type": "address",
							"internalType": "address"
						}
					]
				},
				{
					"name": "expiration",
					"type": "uint64",
					"internalType": "uint64"
				},
				{
					"name": "deadline",
					"type": "uint256",
					"internalType": "uint256"
				},
				{
					"name": "v",
					"type": "uint8",
					"internalType": "uint8"
				},
				{
					"name": "r",
					"type": "bytes32",
					"internalType": "bytes32"
				},
				{
					"name": "s",
					"type": "bytes32",
					"internalType": "bytes32"
				}
			],
			"outputs": [
				{
					"name": "",
					"type": "bytes32",
					"internalType": "bytes32"
				}
			],
			"stateMutability": "nonpayable"
		},
		{
			"type": "function",
			"name": "permitAndBuyErc1155WithErc20",
			"inputs": [
				{
					"name": "bidToken",
					"type": "address",
					"internalType": "address"
				},
				{
					"name": "bidAmount",
					"type": "uint256",
					"internalType": "uint256"
				},
				{
					"name": "askToken",
					"type": "address",
					"internalType": "address"
				},
				{
					"name": "askId",
					"type": "uint256",
					"internalType": "uint256"
				},
				{
					"name": "askAmount",
					"type": "uint256",
					"internalType": "uint256"
				},
				{
					"name": "expiration",
					"type": "uint64",
					"internalType": "uint64"
				},
				{
					"name": "deadline",
					"type": "uint256",
					"internalType": "uint256"
				},
				{
					"name": "v",
					"type": "uint8",
					"internalType": "uint8"
				},
				{
					"name": "r",
					"type": "bytes32",
					"internalType": "bytes32"
				},
				{
					"name": "s",
					"type": "bytes32",
					"internalType": "bytes32"
				}
			],
			"outputs": [
				{
					"name": "",
					"type": "bytes32",
					"internalType": "bytes32"
				}
			],
			"stateMutability": "nonpayable"
		},
		{
			"type": "function",
			"name": "permitAndBuyErc20ForErc20",
			"inputs": [
				{
					"name": "bidToken",
					"type": "address",
					"internalType": "address"
				},
				{
					"name": "bidAmount",
					"type": "uint256",
					"internalType": "uint256"
				},
				{
					"name": "askToken",
					"type": "address",
					"internalType": "address"
				},
				{
					"name": "askAmount",
					"type": "uint256",
					"internalType": "uint256"
				},
				{
					"name": "expiration",
					"type": "uint64",
					"internalType": "uint64"
				},
				{
					"name": "deadline",
					"type": "uint256",
					"internalType": "uint256"
				},
				{
					"name": "v",
					"type": "uint8",
					"internalType": "uint8"
				},
				{
					"name": "r",
					"type": "bytes32",
					"internalType": "bytes32"
				},
				{
					"name": "s",
					"type": "bytes32",
					"internalType": "bytes32"
				}
			],
			"outputs": [
				{
					"name": "",
					"type": "bytes32",
					"internalType": "bytes32"
				}
			],
			"stateMutability": "nonpayable"
		},
		{
			"type": "function",
			"name": "permitAndBuyErc721WithErc20",
			"inputs": [
				{
					"name": "bidToken",
					"type": "address",
					"internalType": "address"
				},
				{
					"name": "bidAmount",
					"type": "uint256",
					"internalType": "uint256"
				},
				{
					"name": "askToken",
					"type": "address",
					"internalType": "address"
				},
				{
					"name": "askId",
					"type": "uint256",
					"internalType": "uint256"
				},
				{
					"name": "expiration",
					"type": "uint64",
					"internalType": "uint64"
				},
				{
					"name": "deadline",
					"type": "uint256",
					"internalType": "uint256"
				},
				{
					"name": "v",
					"type": "uint8",
					"internalType": "uint8"
				},
				{
					"name": "r",
					"type": "bytes32",
					"internalType": "bytes32"
				},
				{
					"name": "s",
					"type": "bytes32",
					"internalType": "bytes32"
				}
			],
			"outputs": [
				{
					"name": "",
					"type": "bytes32",
					"internalType": "bytes32"
				}
			],
			"stateMutability": "nonpayable"
		},
		{
			"type": "function",
			"name": "permitAndBuyWithErc20",
			"inputs": [
				{
					"name": "token",
					"type": "address",
					"internalType": "address"
				},
				{
					"name": "amount",
					"type": "uint256",
					"internalType": "uint256"
				},
				{
					"name": "arbiter",
					"type": "address",
					"internalType": "address"
				},
				{
					"name": "demand",
					"type": "bytes",
					"internalType": "bytes"
				},
				{
					"name": "expiration",
					"type": "uint64",
					"internalType": "uint64"
				},
				{
					"name": "deadline",
					"type": "uint256",
					"internalType": "uint256"
				},
				{
					"name": "v",
					"type": "uint8",
					"internalType": "uint8"
				},
				{
					"name": "r",
					"type": "bytes32",
					"internalType": "bytes32"
				},
				{
					"name": "s",
					"type": "bytes32",
					"internalType": "bytes32"
				}
			],
			"outputs": [
				{
					"name": "",
					"type": "bytes32",
					"internalType": "bytes32"
				}
			],
			"stateMutability": "nonpayable"
		},
		{
			"type": "function",
			"name": "permitAndPayErc20ForBundle",
			"inputs": [
				{
					"name": "buyAttestation",
					"type": "bytes32",
					"internalType": "bytes32"
				},
				{
					"name": "deadline",
					"type": "uint256",
					"internalType": "uint256"
				},
				{
					"name": "v",
					"type": "uint8",
					"internalType": "uint8"
				},
				{
					"name": "r",
					"type": "bytes32",
					"internalType": "bytes32"
				},
				{
					"name": "s",
					"type": "bytes32",
					"internalType": "bytes32"
				}
			],
			"outputs": [
				{
					"name": "",
					"type": "bytes32",
					"internalType": "bytes32"
				}
			],
			"stateMutability": "nonpayable"
		},
		{
			"type": "function",
			"name": "permitAndPayErc20ForErc1155",
			"inputs": [
				{
					"name": "buyAttestation",
					"type": "bytes32",
					"internalType": "bytes32"
				},
				{
					"name": "deadline",
					"type": "uint256",
					"internalType": "uint256"
				},
				{
					"name": "v",
					"type": "uint8",
					"internalType": "uint8"
				},
				{
					"name": "r",
					"type": "bytes32",
					"internalType": "bytes32"
				},
				{
					"name": "s",
					"type": "bytes32",
					"internalType": "bytes32"
				}
			],
			"outputs": [
				{
					"name": "",
					"type": "bytes32",
					"internalType": "bytes32"
				}
			],
			"stateMutability": "nonpayable"
		},
		{
			"type": "function",
			"name": "permitAndPayErc20ForErc20",
			"inputs": [
				{
					"name": "buyAttestation",
					"type": "bytes32",
					"internalType": "bytes32"
				},
				{
					"name": "deadline",
					"type": "uint256",
					"internalType": "uint256"
				},
				{
					"name": "v",
					"type": "uint8",
					"internalType": "uint8"
				},
				{
					"name": "r",
					"type": "bytes32",
					"internalType": "bytes32"
				},
				{
					"name": "s",
					"type": "bytes32",
					"internalType": "bytes32"
				}
			],
			"outputs": [
				{
					"name": "",
					"type": "bytes32",
					"internalType": "bytes32"
				}
			],
			"stateMutability": "nonpayable"
		},
		{
			"type": "function",
			"name": "permitAndPayErc20ForErc721",
			"inputs": [
				{
					"name": "buyAttestation",
					"type": "bytes32",
					"internalType": "bytes32"
				},
				{
					"name": "deadline",
					"type": "uint256",
					"internalType": "uint256"
				},
				{
					"name": "v",
					"type": "uint8",
					"internalType": "uint8"
				},
				{
					"name": "r",
					"type": "bytes32",
					"internalType": "bytes32"
				},
				{
					"name": "s",
					"type": "bytes32",
					"internalType": "bytes32"
				}
			],
			"outputs": [
				{
					"name": "",
					"type": "bytes32",
					"internalType": "bytes32"
				}
			],
			"stateMutability": "nonpayable"
		},
		{
			"type": "function",
			"name": "permitAndPayWithErc20",
			"inputs": [
				{
					"name": "token",
					"type": "address",
					"internalType": "address"
				},
				{
					"name": "amount",
					"type": "uint256",
					"internalType": "uint256"
				},
				{
					"name": "payee",
					"type": "address",
					"internalType": "address"
				},
				{
					"name": "deadline",
					"type": "uint256",
					"internalType": "uint256"
				},
				{
					"name": "v",
					"type": "uint8",
					"internalType": "uint8"
				},
				{
					"name": "r",
					"type": "bytes32",
					"internalType": "bytes32"
				},
				{
					"name": "s",
					"type": "bytes32",
					"internalType": "bytes32"
				}
			],
			"outputs": [
				{
					"name": "",
					"type": "bytes32",
					"internalType": "bytes32"
				}
			],
			"stateMutability": "nonpayable"
		},
		{
			"type": "error",
			"name": "CouldntCollectPayment",
			"inputs": []
		}
	],
	"bytecode": {
		"object": "0x6080346101ae57601f611fc438819003918201601f19168301916001600160401b038311848410176101b257808492610120946040528339810103126101ae5780516001600160a01b03811691908290036101ae5760208101516001600160a01b038116908190036101ae5760408201516001600160a01b038116908190036101ae5760608301516001600160a01b038116908190036101ae5760808401516001600160a01b03811691908290036101ae5760a08501516001600160a01b03811693908490036101ae5760c08601516001600160a01b03811695908690036101ae5760e08701516001600160a01b03811697908890036101ae5761010001516001600160a01b03811698908990036101ae5760018060a01b03195f5416175f5560018060a01b0319600154161760015560018060a01b0319600254161760025560018060a01b0319600354161760035560018060a01b0319600454161760045560018060a01b0319600554161760055560018060a01b0319600654161760065560018060a01b0319600754161760075560018060a01b03196008541617600855604051611dfd90816101c78239f35b5f80fd5b634e487b7160e01b5f52604160045260245ffdfe6080806040526004361015610012575f80fd5b5f905f3560e01c9081631454e3d214610c4d575080631b24bf5214610c315780632bf2ee3914610ba65780633d94053d14610b8a57806346b3aca214610b4a57806367cebb70146109d157806372448d4d146108b9578063759503f214610840578063a6c002e9146107ac578063a7a6884d1461071b578063a827053014610686578063a96addea14610624578063ab2fc2651461058f578063b56edf54146104de578063c17783891461041a578063c2661373146102a0578063e1982e13146101ad5763e3139e86146100e4575f80fd5b346101aa576100f236610cda565b9160248660018060a09897981b03815416604051928380926328c44a9960e21b82528960048301525afa90811561019f579161016861010061015861012061016f97956101749b9a99978d60209e9261017c575b505001518b8082518301019101611517565b015189808251830101910161109d565b95866116c9565b611d00565b604051908152f35b61019892503d8091833e6101908183610e0e565b810190610f33565b5f80610146565b6040513d89823e3d90fd5b80fd5b50346101aa576101003660031901126101aa576101c8610d06565b6024356044356001600160401b038111610298576101006003198236030112610298576101f3610d5c565b9360a43560ff8116810361029c576001546001600160a01b039081169190861690813b1561029857918391868361024e956040519687958694859363d505accf60e01b855260e4359260c43592608435913360048901611174565b03925af1801561028d57610278575b60206101748787876102723660048a0161131d565b91611bff565b610283828092610e0e565b6101aa578061025d565b6040513d84823e3d90fd5b8380fd5b5080fd5b50346101aa5760e03660031901126101aa57806102bb610d06565b6024356102c6610d1c565b6084359260ff84168403610416576002546001600160a01b03918216949116843b156104125761031b918691604051938492839263d505accf60e01b845260c4359160a435918a606435913360048901611174565b038183885af19081156104075785916103e9575b50509060209261038a9260018060a01b0360025416926040519261035284610df3565b8352858301526001600160a01b031660408083019190915251630fba221960e41b81529586938492839190339081906004850161168a565b03925af19081156103dd57906103a6575b602090604051908152f35b506020813d6020116103d5575b816103c060209383610e0e565b810103126103d1576020905161039b565b5f80fd5b3d91506103b3565b604051903d90823e3d90fd5b816103f691949394610e0e565b6104025790835f61032f565b505050fd5b6040513d87823e3d90fd5b8580fd5b8480fd5b50346101aa576101403660031901126101aa57610435610d06565b60243590610441610d1c565b610449610d46565b9360e43560ff8116810361029c576001546001600160a01b039081169190851690813b156102985791839187836104a6956040519687958694859363d505accf60e01b85526101243592610104359260c435913360048901611174565b03925af1801561028d576104c9575b602061017487608435606435878a8a611a47565b6104d4828092610e0e565b6101aa57806104b5565b50346101aa5760203660031901126101aa5780546040516328c44a9960e21b815260048035908201819052918390829060249082906001600160a01b03165afa908115610584576101006105536101206101749594610563948860209992610569575b50500151868082518301019101611517565b015184808251830101910161109d565b90611d00565b61057d92503d8091833e6101908183610e0e565b5f80610541565b6040513d85823e3d90fd5b50346101aa5761059e36610e4a565b6001549499959896979695949293926001600160a01b038088169391169190833b1561062057869493926105ed8a938793604051998a988997889663d505accf60e01b88523360048901611174565b03925af1801561028d5761060b575b60206101748888888888611a1a565b610616828092610e0e565b6101aa57806105fc565b8680fd5b50346101aa5760803660031901126101aa5761063e610d06565b604435916001600160401b0383116101aa5761010060031984360301126101aa576020610174848461067c610671610d5c565b92369060040161131d565b9060243590611bff565b50346101aa5760203660031901126101aa5780546040516328c44a9960e21b815260048035908201819052918390829060249082906001600160a01b03165afa90811561058457606061055361012061017495946106fa948860209992610700575b5050015186808251830101910161101f565b90611ac9565b61071492503d8091833e6101908183610e0e565b5f806106e8565b50346101aa5761072a36610e4a565b6001549499959896979695949293926001600160a01b038088169391169190833b1561062057869493926107798a938793604051998a988997889663d505accf60e01b88523360048901611174565b03925af1801561028d57610797575b60206101748888888888611844565b6107a2828092610e0e565b6101aa5780610788565b50346101aa576107bb36610cda565b9160248660018060a09897981b03815416604051928380926328c44a9960e21b82528960048301525afa90811561019f5791610168608061015861012061082097956101749b9a99978d60209e92610825575b505001518b80825183010191016110dc565b611953565b61083992503d8091833e6101908183610e0e565b5f8061080e565b50346101aa5760203660031901126101aa5780546040516328c44a9960e21b815260048035908201819052918390829060249082906001600160a01b03165afa90811561058457606061055361012061017495946108b3948860209992610700575050015186808251830101910161101f565b90611733565b50346101aa576108c836610cda565b85546040516328c44a9960e21b81526004810187905292969492908590829060249082906001600160a01b03165afa908115610407576109246101206109359360609389916109b7575b5001516020808251830101910161101f565b01516020808251830101910161109d565b8051600254602083015192986001600160a01b03928316949190921691843b156109b357916109838896959493928793604051998a988997889663d505accf60e01b88523360048901611174565b03925af1801561028d5761099e575b60206101748585611ac9565b6109a9828092610e0e565b6101aa5780610992565b8780fd5b6109cb91503d808b833e6101908183610e0e565b5f610912565b50346103d1576101203660031901126103d1576109ec610d06565b90602435906109f9610d1c565b91606435906001600160401b0382116103d157366023830112156103d1578160040135610a2581610e2f565b92610a336040519485610e0e565b81845236602483830101116103d157815f926024602093018387013784010152608435916001600160401b03831683036103d15760c4359560ff871687036103d1576001546001600160a01b03918216929116823b156103d157610abd975f91604051998a92839263d505accf60e01b8452610104359160e435918a60a435913360048901611174565b038183865af1968715610b3f5761038a97610b2a575b506020949560018060a01b03600154169360405193610af185610dc4565b84528684015260018060a01b03166040830152606082015284604051809781958294636b72870760e01b845233913391600486016111b5565b602095505f610b3891610e0e565b5f94610ad3565b6040513d5f823e3d90fd5b346103d15760c03660031901126103d1576020610174610b68610d06565b610b70610d1c565b610b78610d46565b91608435916064359160243590611a47565b346103d1576020610174610b9d36610d72565b93929092611a1a565b346103d15760203660031901126103d15760043560245f60018060a01b03815416604051928380926328c44a9960e21b82528660048301525afa918215610b3f57610c116080610553610120602096610174965f91610c17575b5001518680825183010191016110dc565b90611953565b610c2b91503d805f833e6101908183610e0e565b88610c00565b346103d1576020610174610c4436610d72565b93929092611844565b346103d157610c5b36610cda565b5f80546328c44a9960e21b8852600488018790529396929593839060249082906001600160a01b03165afa948515610b3f5760209661016860606101586101206101749a610cbb985f91610cc0575b5001518b808251830101910161101f565b611733565b610cd491503d805f833e6101908183610e0e565b8d610caa565b60a09060031901126103d157600435906024359060443560ff811681036103d157906064359060843590565b600435906001600160a01b03821682036103d157565b604435906001600160a01b03821682036103d157565b35906001600160a01b03821682036103d157565b60a435906001600160401b03821682036103d157565b606435906001600160401b03821682036103d157565b60a09060031901126103d1576004356001600160a01b03811681036103d15790602435906044356001600160a01b03811681036103d15790606435906084356001600160401b03811681036103d15790565b608081019081106001600160401b03821117610ddf57604052565b634e487b7160e01b5f52604160045260245ffd5b606081019081106001600160401b03821117610ddf57604052565b90601f801991011681019081106001600160401b03821117610ddf57604052565b6001600160401b038111610ddf57601f01601f191660200190565b6101209060031901126103d1576004356001600160a01b03811681036103d15790602435906044356001600160a01b03811681036103d15790606435906084356001600160401b03811681036103d1579060a4359060c43560ff811681036103d1579060e435906101043590565b51906001600160401b03821682036103d157565b51906001600160a01b03821682036103d157565b519081151582036103d157565b81601f820112156103d157805190610f0482610e2f565b92610f126040519485610e0e565b828452602083830101116103d157815f9260208093018386015e8301015290565b6020818303126103d1578051906001600160401b0382116103d15701610140818303126103d1576040519161014083018381106001600160401b03821117610ddf576040528151835260208201516020840152610f9260408301610eb8565b6040840152610fa360608301610eb8565b6060840152610fb460808301610eb8565b608084015260a082015160a0840152610fcf60c08301610ecc565b60c0840152610fe060e08301610ecc565b60e0840152610ff26101008301610ee0565b6101008401526101208201516001600160401b0381116103d1576110169201610eed565b61012082015290565b6020818303126103d1578051906001600160401b0382116103d157016080818303126103d1576040519161105283610dc4565b61105b82610ecc565b83526020820151602084015261107360408301610ecc565b604084015260608201516001600160401b0381116103d1576110959201610eed565b606082015290565b908160609103126103d1576110d460408051926110b984610df3565b6110c281610ecc565b84526020810151602085015201610ecc565b604082015290565b6020818303126103d1578051906001600160401b0382116103d1570160a0818303126103d1576040519160a083018381106001600160401b03821117610ddf5760405261112882610ecc565b8352602082015160208401526040820151604084015261114a60608301610ecc565b606084015260808201516001600160401b0381116103d15761116c9201610eed565b608082015290565b9360c095919897969360ff9360e087019a60018060a01b0316875260018060a01b031660208701526040860152606085015216608083015260a08201520152565b926001600160401b036101206020606080969998956080895260018060a01b0381511660808a01528281015160a08a015260018060a01b0360408201511660c08a01520151608060e08901528051918291826101008b0152018389015e5f828289010152601f80199101168601019616602085015260018060a01b0316604084015260018060a01b0316910152565b6001600160401b038111610ddf5760051b60200190565b9080601f830112156103d157813561127281611244565b926112806040519485610e0e565b81845260208085019260051b8201019283116103d157602001905b8282106112a85750505090565b602080916112b584610d32565b81520191019061129b565b9080601f830112156103d15781356112d781611244565b926112e56040519485610e0e565b81845260208085019260051b8201019283116103d157602001905b82821061130d5750505090565b8135815260209182019101611300565b919091610100818403126103d1576040519061010082018281106001600160401b03821117610ddf57604052819381356001600160401b0381116103d1578161136791840161125b565b835260208201356001600160401b0381116103d157816113889184016112c0565b602084015260408201356001600160401b0381116103d157816113ac91840161125b565b604084015260608201356001600160401b0381116103d157816113d09184016112c0565b606084015260808201356001600160401b0381116103d157816113f491840161125b565b608084015260a08201356001600160401b0381116103d157816114189184016112c0565b60a084015260c0820135906001600160401b0382116103d1578261144560e09492611450948694016112c0565b60c086015201610d32565b910152565b9080601f830112156103d157815161146c81611244565b9261147a6040519485610e0e565b81845260208085019260051b8201019283116103d157602001905b8282106114a25750505090565b602080916114af84610ecc565b815201910190611495565b9080601f830112156103d15781516114d181611244565b926114df6040519485610e0e565b81845260208085019260051b8201019283116103d157602001905b8282106115075750505090565b81518152602091820191016114fa565b6020818303126103d1578051906001600160401b0382116103d15701610120818303126103d1576040519161012083018381106001600160401b03821117610ddf5760405281516001600160401b0381116103d15781611578918401611455565b835260208201516001600160401b0381116103d157816115999184016114ba565b602084015260408201516001600160401b0381116103d157816115bd918401611455565b604084015260608201516001600160401b0381116103d157816115e19184016114ba565b606084015260808201516001600160401b0381116103d15781611605918401611455565b608084015260a08201516001600160401b0381116103d157816116299184016114ba565b60a084015260c08201516001600160401b0381116103d1578161164d9184016114ba565b60c084015261165e60e08301610ecc565b60e08401526101008201516001600160401b0381116103d1576116819201610eed565b61010082015290565b81516001600160a01b03908116825260208084015190830152604092830151811692820192909252918116606083015291909116608082015260a00190565b8051600254602090920151939592936001600160a01b03918216939092909116833b156103d1576117165f96928793604051998a988997889663d505accf60e01b88523360048901611174565b03925af18015610b3f576117275750565b5f61173191610e0e565b565b60206117665f9360018060a01b036002541690604051958680948193630fba221960e41b8352339033906004850161168a565b03925af1918215610b3f575f9261180f575b506003546040516330088bc960e01b8152600481019290925260248201839052602090829060449082905f906001600160a01b03165af1908115610b3f575f916117d5575b50156117c65790565b636c7b6f5560e11b5f5260045ffd5b90506020813d602011611807575b816117f060209383610e0e565b810103126103d15761180190610ee0565b5f6117bd565b3d91506117e3565b9091506020813d60201161183c575b8161182b60209383610e0e565b810103126103d15751906020611778565b3d915061181e565b60015460025460405161190f9760209790966001600160a01b039485169692949093169261187185610df3565b60018060a01b03168452878401523360408401526118ba604051938885019060409060018060a01b038151168352602081015160208401528160018060a01b0391015116910152565b606083526118c9608084610e0e565b604051936118d685610dc4565b60018060a01b0316845286840152604083015260608201525f604051809681958294636b72870760e01b845233913391600486016111b5565b03925af1908115610b3f575f91611924575090565b90506020813d60201161194b575b8161193f60209383610e0e565b810103126103d1575190565b3d9150611932565b60206119865f9360018060a01b036002541690604051958680948193630fba221960e41b8352339033906004850161168a565b03925af1918215610b3f575f926119e5575b506005546040516330088bc960e01b8152600481019290925260248201839052602090829060449082905f906001600160a01b03165af1908115610b3f575f916117d55750156117c65790565b9091506020813d602011611a12575b81611a0160209383610e0e565b810103126103d15751906020611998565b3d91506119f4565b60015460045460405161190f9760209790966001600160a01b039485169692949093169261187185610df3565b909160209461190f96949360018060a01b03600154169460018060a01b036006541692606060405195611a7987610dc4565b60018060a01b0316958681528a8101938452604081019283520191338352604051958a87015251604086015251606085015260018060a01b039051166080840152608083526118c960a084610e0e565b6020611afc5f9360018060a01b036002541690604051958680948193630fba221960e41b8352339033906004850161168a565b03925af1918215610b3f575f92611b5b575b506001546040516330088bc960e01b8152600481019290925260248201839052602090829060449082905f906001600160a01b03165af1908115610b3f575f916117d55750156117c65790565b9091506020813d602011611b88575b81611b7760209383610e0e565b810103126103d15751906020611b0e565b3d9150611b6a565b90602080835192838152019201905f5b818110611bad5750505090565b82516001600160a01b0316845260209384019390920191600101611ba0565b90602080835192838152019201905f5b818110611be95750505090565b8251845260209384019390920191600101611bdc565b9061190f939160209360018060a01b03600154169260018060a01b0360085416906118c960405180948980830152611cdc611cc5611caf611c99611c83611c6d611c57875161010060408b01526101408a0190611b90565b6020880151898203603f190160608b0152611bcc565b6040870151888203603f190160808a0152611b90565b6060860151878203603f190160a0890152611bcc565b6080850151868203603f190160c0880152611b90565b60a0840151858203603f190160e0870152611bcc565b60c0830151848203603f1901610100860152611bcc565b60e091909101516001600160a01b031661012083015203601f198101855284610e0e565b6020611d335f9360018060a01b036002541690604051958680948193630fba221960e41b8352339033906004850161168a565b03925af1918215610b3f575f92611d92575b506007546040516330088bc960e01b8152600481019290925260248201839052602090829060449082905f906001600160a01b03165af1908115610b3f575f916117d55750156117c65790565b9091506020813d602011611dbf575b81611dae60209383610e0e565b810103126103d15751906020611d45565b3d9150611da156fea2646970667358221220c41ec63e66b691d0bc6d0bace7cd4bad6cad840ddbb8abc743e8c84c876664a164736f6c634300081a0033",
		"linkReferences": {}
	},
	"methodIdentifiers": {
		"buyBundleWithErc20(address,uint256,(address[],uint256[],address[],uint256[],address[],uint256[],uint256[],address),uint64)": "a96addea",
		"buyErc1155WithErc20(address,uint256,address,uint256,uint256,uint64)": "46b3aca2",
		"buyErc20ForErc20(address,uint256,address,uint256,uint64)": "1b24bf52",
		"buyErc721WithErc20(address,uint256,address,uint256,uint64)": "3d94053d",
		"payErc20ForBundle(bytes32)": "b56edf54",
		"payErc20ForErc1155(bytes32)": "2bf2ee39",
		"payErc20ForErc20(bytes32)": "a8270530",
		"payErc20ForErc721(bytes32)": "759503f2",
		"permitAndBuyBundleWithErc20(address,uint256,(address[],uint256[],address[],uint256[],address[],uint256[],uint256[],address),uint64,uint256,uint8,bytes32,bytes32)": "e1982e13",
		"permitAndBuyErc1155WithErc20(address,uint256,address,uint256,uint256,uint64,uint256,uint8,bytes32,bytes32)": "c1778389",
		"permitAndBuyErc20ForErc20(address,uint256,address,uint256,uint64,uint256,uint8,bytes32,bytes32)": "a7a6884d",
		"permitAndBuyErc721WithErc20(address,uint256,address,uint256,uint64,uint256,uint8,bytes32,bytes32)": "ab2fc265",
		"permitAndBuyWithErc20(address,uint256,address,bytes,uint64,uint256,uint8,bytes32,bytes32)": "67cebb70",
		"permitAndPayErc20ForBundle(bytes32,uint256,uint8,bytes32,bytes32)": "e3139e86",
		"permitAndPayErc20ForErc1155(bytes32,uint256,uint8,bytes32,bytes32)": "a6c002e9",
		"permitAndPayErc20ForErc20(bytes32,uint256,uint8,bytes32,bytes32)": "72448d4d",
		"permitAndPayErc20ForErc721(bytes32,uint256,uint8,bytes32,bytes32)": "1454e3d2",
		"permitAndPayWithErc20(address,uint256,address,uint256,uint8,bytes32,bytes32)": "c2661373"
	},
	"id": 82
}