{"abi":[{"type":"constructor","inputs":[{"name":"_eas","type":"address","internalType":"address"},{"name":"_erc20Payment","type":"address","internalType":"address payable"},{"name":"_erc20Fulfillment","type":"address","internalType":"address"}],"stateMutability":"nonpayable"},{"type":"function","name":"buyErc20ForErc20","inputs":[{"name":"bidToken","type":"address","internalType":"address"},{"name":"bidAmount","type":"uint256","internalType":"uint256"},{"name":"askToken","type":"address","internalType":"address"},{"name":"askAmount","type":"uint256","internalType":"uint256"},{"name":"expiration","type":"uint64","internalType":"uint64"}],"outputs":[{"name":"","type":"bytes32","internalType":"bytes32"}],"stateMutability":"nonpayable"},{"type":"function","name":"payErc20ForErc20","inputs":[{"name":"buyAttestation","type":"bytes32","internalType":"bytes32"}],"outputs":[{"name":"","type":"bytes32","internalType":"bytes32"}],"stateMutability":"nonpayable"},{"type":"function","name":"permitAndBuyErc20ForErc20","inputs":[{"name":"bidToken","type":"address","internalType":"address"},{"name":"bidAmount","type":"uint256","internalType":"uint256"},{"name":"askToken","type":"address","internalType":"address"},{"name":"askAmount","type":"uint256","internalType":"uint256"},{"name":"expiration","type":"uint64","internalType":"uint64"},{"name":"v","type":"uint8","internalType":"uint8"},{"name":"r","type":"bytes32","internalType":"bytes32"},{"name":"s","type":"bytes32","internalType":"bytes32"}],"outputs":[{"name":"","type":"bytes32","internalType":"bytes32"}],"stateMutability":"nonpayable"},{"type":"function","name":"permitAndBuyWithErc20","inputs":[{"name":"token","type":"address","internalType":"address"},{"name":"amount","type":"uint256","internalType":"uint256"},{"name":"arbiter","type":"address","internalType":"address"},{"name":"demand","type":"bytes","internalType":"bytes"},{"name":"expiration","type":"uint64","internalType":"uint64"},{"name":"v","type":"uint8","internalType":"uint8"},{"name":"r","type":"bytes32","internalType":"bytes32"},{"name":"s","type":"bytes32","internalType":"bytes32"}],"outputs":[{"name":"","type":"bytes32","internalType":"bytes32"}],"stateMutability":"nonpayable"},{"type":"function","name":"permitAndPayErc20ForErc20","inputs":[{"name":"buyAttestation","type":"bytes32","internalType":"bytes32"},{"name":"askToken","type":"address","internalType":"address"},{"name":"askAmount","type":"uint256","internalType":"uint256"},{"name":"v","type":"uint8","internalType":"uint8"},{"name":"r","type":"bytes32","internalType":"bytes32"},{"name":"s","type":"bytes32","internalType":"bytes32"}],"outputs":[{"name":"","type":"bytes32","internalType":"bytes32"}],"stateMutability":"nonpayable"},{"type":"function","name":"permitAndPayWithErc20","inputs":[{"name":"token","type":"address","internalType":"address"},{"name":"amount","type":"uint256","internalType":"uint256"},{"name":"item","type":"bytes32","internalType":"bytes32"},{"name":"expiration","type":"uint64","internalType":"uint64"},{"name":"v","type":"uint8","internalType":"uint8"},{"name":"r","type":"bytes32","internalType":"bytes32"},{"name":"s","type":"bytes32","internalType":"bytes32"}],"outputs":[{"name":"","type":"bytes32","internalType":"bytes32"}],"stateMutability":"nonpayable"},{"type":"error","name":"CouldntCollectPayment","inputs":[]}],"bytecode":{"object":"0x60803460ab57601f610cdf38819003918201601f19168301916001600160401b0383118484101760af5780849260609460405283398101031260ab5760428160c3565b602082015190916001600160a01b0382169182900360ab5760406064910160c3565b5f80546001600160a01b039485166001600160a01b0319918216179091556001805482169390931790925560028054919093169116179055604051610c0890816100d78239f35b5f80fd5b634e487b7160e01b5f52604160045260245ffd5b51906001600160a01b038216820360ab5756fe60806040526004361015610011575f80fd5b5f803560e01c80631b24bf52146105ec5780634cbfeeca1461051d5780635957c3111461032057806395cb9bf01461023b578063a8270530146102145763c18ae7411461005c575f80fd5b346102115760e036600319011261021157610075610629565b9060243591606435906001600160401b0382168092036101e6576084359060ff8216820361020d57600180546001600160a01b039283169342928301939091169183106101f957833b156101f5579085916100ee604051948593849363d505accf60e01b855260c435928c60a435933360048901610701565b038183865af180156101ea579084916101d1575b505060018060a01b0360015416936040519161011d8361067b565b8252602082015282604082015261016c602094859260405161013f85826106c5565b86815260608201528560405180968195829463247cfda360e11b8452606060048501526064840190610742565b906024830152604435604483015203925af19182156101c55791610194575b50604051908152f35b90508181813d83116101be575b6101ab81836106c5565b810103126101ba57515f61018b565b5f80fd5b503d6101a1565b604051903d90823e3d90fd5b816101db916106c5565b6101e657825f610102565b8280fd5b6040513d86823e3d90fd5b8580fd5b634e487b7160e01b86526011600452602486fd5b8380fd5b80fd5b50346102115760203660031901126102115760206102336004356108d1565b604051908152f35b50346102115761010036600319011261021157610256610629565b60243561026161063f565b9061026a610655565b9361027361066b565b6001805442918201926001600160a01b0388811693921691841061030c57823b1561030857916102c893918580946040519687958694859363d505accf60e01b855260e435928d60c435933360048901610701565b03925af180156102fd576102e8575b60206102338760643587878a61079a565b6102f38280926106c5565b61021157806102d7565b6040513d84823e3d90fd5b8480fd5b634e487b7160e01b85526011600452602485fd5b5034610211576101003660031901126102115761033b610629565b9060243561034761063f565b926064356001600160401b03811161020d573660238201121561020d578060040135610372816106e6565b9161038060405193846106c5565b81835236602483830101116101f55781869260246020930183860137830101526103a8610655565b946103b161066b565b600180546001600160a01b03958616954292830193911691831061050957853b1561050557908791610401604051948593849363d505accf60e01b855260e435928c60c435933360048901610701565b038183885af180156104fa579086949392916104dd575b509260209492610481926001600160401b039560018060a01b036001541695604051936104448561067b565b84528884015260018060a01b0316604083015260608201526040519788958694859363247cfda360e11b8552606060048601526064850190610742565b9116602483015282604483015203925af19081156101c557906104aa575b602090604051908152f35b506020813d6020116104d5575b816104c4602093836106c5565b810103126101ba576020905161049f565b3d91506104b7565b846104ec9195929394956106c5565b61030857908492915f610418565b6040513d88823e3d90fd5b8780fd5b634e487b7160e01b88526011600452602488fd5b346101ba5760c03660031901126101ba576024356001600160a01b038116908190036101ba5760643560ff811681036101ba57600180546001600160a01b031692429182019182106105d857803b156101ba576105a1935f80946040519687958694859363d505accf60e01b855260a4359260843592604435903360048901610701565b03925af180156105cd576105bd575b60206102336004356108d1565b5f6105c7916106c5565b5f6105b0565b6040513d5f823e3d90fd5b634e487b7160e01b5f52601160045260245ffd5b346101ba5760a03660031901126101ba57602061023361060a610629565b61061261063f565b9061061b610655565b91606435916024359061079a565b600435906001600160a01b03821682036101ba57565b604435906001600160a01b03821682036101ba57565b608435906001600160401b03821682036101ba57565b60a4359060ff821682036101ba57565b608081019081106001600160401b0382111761069657604052565b634e487b7160e01b5f52604160045260245ffd5b604081019081106001600160401b0382111761069657604052565b90601f801991011681019081106001600160401b0382111761069657604052565b6001600160401b03811161069657601f01601f191660200190565b9360c095919897969360ff9360e087019a60018060a01b0316875260018060a01b031660208701526040860152606085015216608083015260a08201520152565b906020606060a093600180861b0381511684528281015183850152600180861b0360408201511660408501520151608060608401528051918291826080860152018484015e5f828201840152601f01601f1916010190565b6001546002546040516020966001600160401b03966001600160a01b039485169661084b965f969095169290918a906107d2866106aa565b6001600160a01b03168086529401908152604080518b81019590955290518482015283526108016060846106c5565b6040519361080e8561067b565b60018060a01b0316845288840152604083015260608201526040519687958694859363247cfda360e11b8552606060048601526064850190610742565b9116602483015282604483015203925af19081156105cd575f9161086d575090565b90506020813d602011610894575b81610888602093836106c5565b810103126101ba575190565b3d915061087b565b51906001600160401b03821682036101ba57565b51906001600160a01b03821682036101ba57565b519081151582036101ba57565b5f80546040516328c44a9960e21b8152600481018490529190829060249082906001600160a01b03165afa80156105cd575f90610a95575b610120915001516040818051810103126101ba575f9160209160405161092e816106aa565b604061093b8584016108b0565b928383520151938491015260018060a01b0360015416926040519161095f8361067b565b60018060a01b0316825260208201528360408201526109b5602093849260405161098985826106c5565b878152606082015260405196878094819363247cfda360e11b8352606060048401526064830190610742565b82602483015287604483015203925af19283156105cd575f93610a66575b506001546040516330088bc960e01b81526004810192909252602482018490528290829060449082905f906001600160a01b03165af19182156105cd575f92610a30575b505015610a215790565b636c7b6f5560e11b5f5260045ffd5b90809250813d8311610a5f575b610a4781836106c5565b810103126101ba57610a58906108c4565b5f80610a17565b503d610a3d565b9092508181813d8311610a8e575b610a7e81836106c5565b810103126101ba575191816109d3565b503d610a74565b503d805f833e610aa581836106c5565b8101906020818303126101ba578051906001600160401b0382116101ba5701610140818303126101ba576040519061014082018281106001600160401b03821117610696576040528051825260208101516020830152610b076040820161089c565b6040830152610b186060820161089c565b6060830152610b296080820161089c565b608083015260a081015160a0830152610b4460c082016108b0565b60c0830152610b5560e082016108b0565b60e0830152610b6761010082016108c4565b610100830152610120810151906001600160401b0382116101ba57019180601f840112156101ba578251610b9a816106e6565b91610ba860405193846106c5565b818352602082860101116101ba576020815f928261012097018386015e830101528282015261090956fea2646970667358221220c27e829f4b3c3a1c076a41f89d54221ec8e3e84dc9b89f4f472d7b7883b367bb64736f6c634300081a0033","linkReferences":{}},"methodIdentifiers":{"buyErc20ForErc20(address,uint256,address,uint256,uint64)":"1b24bf52","payErc20ForErc20(bytes32)":"a8270530","permitAndBuyErc20ForErc20(address,uint256,address,uint256,uint64,uint8,bytes32,bytes32)":"95cb9bf0","permitAndBuyWithErc20(address,uint256,address,bytes,uint64,uint8,bytes32,bytes32)":"5957c311","permitAndPayErc20ForErc20(bytes32,address,uint256,uint8,bytes32,bytes32)":"4cbfeeca","permitAndPayWithErc20(address,uint256,bytes32,uint64,uint8,bytes32,bytes32)":"c18ae741"},"id":18}