{"abi":[{"type":"constructor","inputs":[{"name":"_eas","type":"address","internalType":"contract IEAS"},{"name":"_schemaRegistry","type":"address","internalType":"contract ISchemaRegistry"}],"stateMutability":"nonpayable"},{"type":"receive","stateMutability":"payable"},{"type":"function","name":"ATTESTATION_SCHEMA","inputs":[],"outputs":[{"name":"","type":"bytes32","internalType":"bytes32"}],"stateMutability":"view"},{"type":"function","name":"attest","inputs":[{"name":"attestation","type":"tuple","internalType":"struct Attestation","components":[{"name":"uid","type":"bytes32","internalType":"bytes32"},{"name":"schema","type":"bytes32","internalType":"bytes32"},{"name":"time","type":"uint64","internalType":"uint64"},{"name":"expirationTime","type":"uint64","internalType":"uint64"},{"name":"revocationTime","type":"uint64","internalType":"uint64"},{"name":"refUID","type":"bytes32","internalType":"bytes32"},{"name":"recipient","type":"address","internalType":"address"},{"name":"attester","type":"address","internalType":"address"},{"name":"revocable","type":"bool","internalType":"bool"},{"name":"data","type":"bytes","internalType":"bytes"}]}],"outputs":[{"name":"","type":"bool","internalType":"bool"}],"stateMutability":"payable"},{"type":"function","name":"cancelStatement","inputs":[{"name":"uid","type":"bytes32","internalType":"bytes32"}],"outputs":[{"name":"","type":"bool","internalType":"bool"}],"stateMutability":"nonpayable"},{"type":"function","name":"checkStatement","inputs":[{"name":"statement","type":"tuple","internalType":"struct Attestation","components":[{"name":"uid","type":"bytes32","internalType":"bytes32"},{"name":"schema","type":"bytes32","internalType":"bytes32"},{"name":"time","type":"uint64","internalType":"uint64"},{"name":"expirationTime","type":"uint64","internalType":"uint64"},{"name":"revocationTime","type":"uint64","internalType":"uint64"},{"name":"refUID","type":"bytes32","internalType":"bytes32"},{"name":"recipient","type":"address","internalType":"address"},{"name":"attester","type":"address","internalType":"address"},{"name":"revocable","type":"bool","internalType":"bool"},{"name":"data","type":"bytes","internalType":"bytes"}]},{"name":"demand","type":"bytes","internalType":"bytes"},{"name":"","type":"bytes32","internalType":"bytes32"}],"outputs":[{"name":"","type":"bool","internalType":"bool"}],"stateMutability":"view"},{"type":"function","name":"collectPayment","inputs":[{"name":"_payment","type":"bytes32","internalType":"bytes32"},{"name":"_fulfillment","type":"bytes32","internalType":"bytes32"}],"outputs":[{"name":"","type":"bool","internalType":"bool"}],"stateMutability":"nonpayable"},{"type":"function","name":"getSchema","inputs":[],"outputs":[{"name":"","type":"tuple","internalType":"struct SchemaRecord","components":[{"name":"uid","type":"bytes32","internalType":"bytes32"},{"name":"resolver","type":"address","internalType":"contract ISchemaResolver"},{"name":"revocable","type":"bool","internalType":"bool"},{"name":"schema","type":"string","internalType":"string"}]}],"stateMutability":"view"},{"type":"function","name":"getStatement","inputs":[{"name":"uid","type":"bytes32","internalType":"bytes32"}],"outputs":[{"name":"","type":"tuple","internalType":"struct Attestation","components":[{"name":"uid","type":"bytes32","internalType":"bytes32"},{"name":"schema","type":"bytes32","internalType":"bytes32"},{"name":"time","type":"uint64","internalType":"uint64"},{"name":"expirationTime","type":"uint64","internalType":"uint64"},{"name":"revocationTime","type":"uint64","internalType":"uint64"},{"name":"refUID","type":"bytes32","internalType":"bytes32"},{"name":"recipient","type":"address","internalType":"address"},{"name":"attester","type":"address","internalType":"address"},{"name":"revocable","type":"bool","internalType":"bool"},{"name":"data","type":"bytes","internalType":"bytes"}]}],"stateMutability":"view"},{"type":"function","name":"isPayable","inputs":[],"outputs":[{"name":"","type":"bool","internalType":"bool"}],"stateMutability":"pure"},{"type":"function","name":"makeStatement","inputs":[{"name":"data","type":"tuple","internalType":"struct ERC20PaymentObligation.StatementData","components":[{"name":"token","type":"address","internalType":"address"},{"name":"amount","type":"uint256","internalType":"uint256"},{"name":"arbiter","type":"address","internalType":"address"},{"name":"demand","type":"bytes","internalType":"bytes"}]},{"name":"expirationTime","type":"uint64","internalType":"uint64"},{"name":"refUID","type":"bytes32","internalType":"bytes32"}],"outputs":[{"name":"","type":"bytes32","internalType":"bytes32"}],"stateMutability":"nonpayable"},{"type":"function","name":"multiAttest","inputs":[{"name":"attestations","type":"tuple[]","internalType":"struct Attestation[]","components":[{"name":"uid","type":"bytes32","internalType":"bytes32"},{"name":"schema","type":"bytes32","internalType":"bytes32"},{"name":"time","type":"uint64","internalType":"uint64"},{"name":"expirationTime","type":"uint64","internalType":"uint64"},{"name":"revocationTime","type":"uint64","internalType":"uint64"},{"name":"refUID","type":"bytes32","internalType":"bytes32"},{"name":"recipient","type":"address","internalType":"address"},{"name":"attester","type":"address","internalType":"address"},{"name":"revocable","type":"bool","internalType":"bool"},{"name":"data","type":"bytes","internalType":"bytes"}]},{"name":"values","type":"uint256[]","internalType":"uint256[]"}],"outputs":[{"name":"","type":"bool","internalType":"bool"}],"stateMutability":"payable"},{"type":"function","name":"multiRevoke","inputs":[{"name":"attestations","type":"tuple[]","internalType":"struct Attestation[]","components":[{"name":"uid","type":"bytes32","internalType":"bytes32"},{"name":"schema","type":"bytes32","internalType":"bytes32"},{"name":"time","type":"uint64","internalType":"uint64"},{"name":"expirationTime","type":"uint64","internalType":"uint64"},{"name":"revocationTime","type":"uint64","internalType":"uint64"},{"name":"refUID","type":"bytes32","internalType":"bytes32"},{"name":"recipient","type":"address","internalType":"address"},{"name":"attester","type":"address","internalType":"address"},{"name":"revocable","type":"bool","internalType":"bool"},{"name":"data","type":"bytes","internalType":"bytes"}]},{"name":"values","type":"uint256[]","internalType":"uint256[]"}],"outputs":[{"name":"","type":"bool","internalType":"bool"}],"stateMutability":"payable"},{"type":"function","name":"revoke","inputs":[{"name":"attestation","type":"tuple","internalType":"struct Attestation","components":[{"name":"uid","type":"bytes32","internalType":"bytes32"},{"name":"schema","type":"bytes32","internalType":"bytes32"},{"name":"time","type":"uint64","internalType":"uint64"},{"name":"expirationTime","type":"uint64","internalType":"uint64"},{"name":"revocationTime","type":"uint64","internalType":"uint64"},{"name":"refUID","type":"bytes32","internalType":"bytes32"},{"name":"recipient","type":"address","internalType":"address"},{"name":"attester","type":"address","internalType":"address"},{"name":"revocable","type":"bool","internalType":"bool"},{"name":"data","type":"bytes","internalType":"bytes"}]}],"outputs":[{"name":"","type":"bool","internalType":"bool"}],"stateMutability":"payable"},{"type":"function","name":"version","inputs":[],"outputs":[{"name":"","type":"string","internalType":"string"}],"stateMutability":"view"},{"type":"error","name":"AccessDenied","inputs":[]},{"type":"error","name":"AttestationRevoked","inputs":[]},{"type":"error","name":"DeadlineExpired","inputs":[]},{"type":"error","name":"InsufficientValue","inputs":[]},{"type":"error","name":"InvalidEAS","inputs":[]},{"type":"error","name":"InvalidFulfillment","inputs":[]},{"type":"error","name":"InvalidLength","inputs":[]},{"type":"error","name":"InvalidPayment","inputs":[]},{"type":"error","name":"InvalidPaymentAttestation","inputs":[]},{"type":"error","name":"InvalidSchema","inputs":[]},{"type":"error","name":"NotFromStatement","inputs":[]},{"type":"error","name":"NotPayable","inputs":[]},{"type":"error","name":"UnauthorizedCall","inputs":[]}],"bytecode":{"object":"0x61016080604052346101ff57604081611a3080380380916100208285610239565b8339810103126101ff5780516001600160a01b038116918282036101ff5760200151916001600160a01b0383168084036101ff57604051606081016001600160401b0381118282101761022557604052603c815260208101927f6164647265737320746f6b656e2c2075696e7432353620616d6f756e742c206184527f64647265737320617262697465722c2062797465732064656d616e640000000060408301526001608052600360a0525f60c05215610216576084948460209560e05261012052610100525f604051958680958194630c1af44f60e31b8352606060048401525180918160648501528484015e818101830184905230602483015260016044830152601f01601f191681010301925af190811561020b575f916101d5575b50610140526040516117d3908161025d823960805181610516015260a05181610542015260c0518161056d015260e0518161175e0152610100518161024c01526101205181818161040a01528181610844015281816109690152610d0101526101405181818161021a01528181610442015281816104d30152818161079701528181610a3401528181610d7801526112fe0152f35b90506020813d602011610203575b816101f060209383610239565b810103126101ff57515f610140565b5f80fd5b3d91506101e3565b6040513d5f823e3d90fd5b6341bc07ff60e11b5f5260045ffd5b634e487b7160e01b5f52604160045260245ffd5b601f909101601f19168101906001600160401b038211908210176102255760405256fe6080806040526004361015610029575b50361561001a575f80fd5b631574f9f360e01b5f5260045ffd5b5f803560e01c918263039b9bf614610cda575081631272ff8b14610bc257816330088bc91461093c57816348f9fb46146105fa57816354fd4d50146104f65781635bf2f20d146104bc5781635cc02d2f1461038f5781636b122fe0146101da57816388e5b2d91461015c57816391db0b7e14610133578163ce46e0461461011557508063e49617e1146100f85763e60c3505146100c6575f61000f565b60206100e460e06100d6366110ea565b6100de61175c565b016113ee565b6040516001600160a01b0390911630148152f35b610101366110ea565b5061010a61175c565b602060405160018152f35b34610130578060031936011261013057602090604051908152f35b80fd5b60206101526101413661109a565b9261014d92919261175c565b611449565b6040519015158152f35b6101653661109a565b909261017294929461175c565b8185036101cb578291345b86841061018f57602060405160018152f35b61019a848388611402565b35908082116101bc57906001916101b2868a87611426565b500393019261017d565b63044044a560e21b8652600486fd5b63251f56a160e21b8352600483fd5b346101305780600319360112610130576060806040516101f981610edf565b8381528360208201528360408201520152604051906351753e3760e11b82527f00000000000000000000000000000000000000000000000000000000000000006004830152808260248160018060a01b037f0000000000000000000000000000000000000000000000000000000000000000165afa9081156103835780916102c6575b6060826102c2604051928392602084528051602085015260018060a01b0360208201511660408501526040810151151582850152015160808084015260a0830190610fa4565b0390f35b90503d8082843e6102d78184610efa565b82019160208184031261037f578051906001600160401b03821161037b570190608082840312610130576040519161030e83610edf565b8051835260208101516001600160a01b038116810361037b57602084015261033860408201611146565b60408401526060810151906001600160401b03821161037b57019083601f83011215610130575060609281602061037193519101611153565b828201528261027c565b8280fd5b5080fd5b604051903d90823e3d90fd5b346101305760203660031901126101305760606101206040516103b181610ec3565b83815283602082015283604082015283838201528360808201528360a08201528360c08201528360e0820152836101008201520152604051906328c44a9960e21b82526004356004830152808260248160018060a01b037f0000000000000000000000000000000000000000000000000000000000000000165afa9182156104af57819261048b575b5060208201517f00000000000000000000000000000000000000000000000000000000000000000361047c57604051602080825281906102c290820185610fc8565b63295d5f3960e01b8152600490fd5b6104a89192503d8084833e6104a08183610efa565b8101906111a3565b908261043a565b50604051903d90823e3d90fd5b3461013057806003193601126101305760206040517f00000000000000000000000000000000000000000000000000000000000000008152f35b3461013057806003193601126101305760206105e660016102c29361053a7f00000000000000000000000000000000000000000000000000000000000000006115ef565b9082856105667f00000000000000000000000000000000000000000000000000000000000000006115ef565b81806105917f00000000000000000000000000000000000000000000000000000000000000006115ef565b926040519a888c995191829101848b015e880190601760f91b83830152805192839101602183015e010190601760f91b84830152805192839101600283015e010190838201520301601f198101835282610efa565b604051918291602083526020830190610fa4565b34610130576060366003190112610130576004356001600160401b03811161037f578060040181360391608060031984011261093857602435926001600160401b0384168094036108dc576001600160a01b03610656846113ee565b168560206024850135926064604051809481936323b872dd60e01b83523360048401523060248401528760448401525af190811561092d5787916108ef575b50156108e057604051602080820152936001600160a01b03906106b790610f2f565b16604085015260608401526001600160a01b036106d660448401610f2f565b166080840152606482013590602219018112156108dc5701602460048201359101906001600160401b0381116108dc5780360382136108dc57828160e09261074894608060a08501528160c08501528484013786838284010152601f801991011681010301601f198101835282610efa565b6040519160c083018381106001600160401b038211176108c857604052338352602083015260016040830152604435606083015260808201528160a0820152602060405161079581610e94565b7f000000000000000000000000000000000000000000000000000000000000000081528181019283526040518093819263f17325e760e01b8352846004840152516024830152516040604483015260018060a01b0381511660648301526001600160401b03848201511660848301526040810151151560a4830152606081015160c483015260a0610836608083015160c060e4860152610124850190610fa4565b9101516101048301520381857f00000000000000000000000000000000000000000000000000000000000000006001600160a01b03165af19081156108bd578291610887575b602082604051908152f35b90506020813d6020116108b5575b816108a260209383610efa565b8101031261037f5760209150518261087c565b3d9150610895565b6040513d84823e3d90fd5b634e487b7160e01b85526041600452602485fd5b8480fd5b63078d696560e31b8652600486fd5b90506020813d602011610925575b8161090a60209383610efa565b810103126109215761091b90611146565b87610695565b8680fd5b3d91506108fd565b6040513d89823e3d90fd5b8380fd5b34610130576040366003190112610130576040516328c44a9960e21b8152600480359082018190529091907f00000000000000000000000000000000000000000000000000000000000000006001600160a01b03168284602481845afa938415610bb7578394610b9b575b50604051916328c44a9960e21b835260243560048401528383602481855afa928315610b56578493610b7f575b506109de856114d9565b15610b7057610a0985610a0161012086979801516020808251830101910161127e565b958691611534565b15610b6157604051859291610a1d82610e94565b815282602082015260405190610a3282610e94565b7f000000000000000000000000000000000000000000000000000000000000000082526020820152813b1561037b57604051634692626760e01b8152815160048201526020918201518051602483015290910151604482015291908290606490829084905af18015610b5657610b41575b50815160c09091015160209283015160405163a9059cbb60e01b81526001600160a01b0392831660048201526024810191909152939291849116818481604481015b03925af1908115610383578091610b04575b6020826040519015158152f35b90506020823d602011610b39575b81610b1f60209383610efa565b810103126101305750610b33602091611146565b82610af7565b3d9150610b12565b610b4c848092610efa565b61037b5783610aa3565b6040513d86823e3d90fd5b630ebe58ef60e11b8552600485fd5b633129ca1960e11b8452600484fd5b610b949193503d8086833e6104a08183610efa565b91856109d4565b610bb09194503d8085833e6104a08183610efa565b92846109a7565b6040513d85823e3d90fd5b3461013057606036600319011261013057600435906001600160401b0382116101305761014060031983360301126101305760405191610c0183610ec3565b8060040135835260248101356020840152610c1e60448201610f1b565b6040840152610c2f60648201610f1b565b6060840152610c4060848201610f1b565b608084015260a481013560a0840152610c5b60c48201610f2f565b60c0840152610c6c60e48201610f2f565b60e0840152610104810135801515810361037b576101008401526101248101356001600160401b03811161037b57610ca991369101600401610f5e565b610120830152602435906001600160401b03821161013057602061015284610cd43660048701610f5e565b906112fc565b34610e65576020366003190112610e65576328c44a9960e21b8152600480359082018190527f00000000000000000000000000000000000000000000000000000000000000006001600160a01b03165f83602481845afa928315610e5a575f93610e78575b5060c08301516001600160a01b03163303610e695760405191610d6183610e94565b82525f602083015260405191610d7683610e94565b7f000000000000000000000000000000000000000000000000000000000000000083526020830152803b15610e6557604051634692626760e01b815282516004820152602092830151805160248301529092015160448301525f908290606490829084905af18015610e5a57610e41575b506020610ae5610e056101208594015183808251830101910161127e565b80519083015160405163a9059cbb60e01b815233600482015260248101919091529485926001600160a01b039092169183919082906044820190565b61012092505f610e5091610efa565b5f91506020610de7565b6040513d5f823e3d90fd5b5f80fd5b637bf6a16f60e01b5f5260045ffd5b610e8d9193503d805f833e6104a08183610efa565b9184610d3f565b604081019081106001600160401b03821117610eaf57604052565b634e487b7160e01b5f52604160045260245ffd5b61014081019081106001600160401b03821117610eaf57604052565b608081019081106001600160401b03821117610eaf57604052565b90601f801991011681019081106001600160401b03821117610eaf57604052565b35906001600160401b0382168203610e6557565b35906001600160a01b0382168203610e6557565b6001600160401b038111610eaf57601f01601f191660200190565b81601f82011215610e6557803590610f7582610f43565b92610f836040519485610efa565b82845260208383010111610e6557815f926020809301838601378301015290565b805180835260209291819084018484015e5f828201840152601f01601f1916010190565b906101406101206110679380518452602081015160208501526001600160401b0360408201511660408501526001600160401b0360608201511660608501526001600160401b03608082015116608085015260a081015160a085015260018060a01b0360c08201511660c085015260018060a01b0360e08201511660e08501526101008101511515610100850152015191816101208201520190610fa4565b90565b9181601f84011215610e65578235916001600160401b038311610e65576020808501948460051b010111610e6557565b6040600319820112610e65576004356001600160401b038111610e6557816110c49160040161106a565b92909291602435906001600160401b038211610e65576110e69160040161106a565b9091565b6020600319820112610e6557600435906001600160401b038211610e6557610140908290036003190112610e655760040190565b51906001600160401b0382168203610e6557565b51906001600160a01b0382168203610e6557565b51908115158203610e6557565b92919261115f82610f43565b9161116d6040519384610efa565b829481845281830111610e65578281602093845f96015e010152565b9080601f83011215610e6557815161106792602001611153565b602081830312610e65578051906001600160401b038211610e65570161014081830312610e6557604051916111d783610ec3565b81518352602082015160208401526111f16040830161111e565b60408401526112026060830161111e565b60608401526112136080830161111e565b608084015260a082015160a084015261122e60c08301611132565b60c084015261123f60e08301611132565b60e08401526112516101008301611146565b6101008401526101208201516001600160401b038111610e65576112759201611189565b61012082015290565b602081830312610e65578051906001600160401b038211610e655701608081830312610e6557604051916112b183610edf565b6112ba82611132565b8352602082015160208401526112d260408301611132565b604084015260608201516001600160401b038111610e65576112f49201611189565b606082015290565b7f00000000000000000000000000000000000000000000000000000000000000006020820151036113df57611330816114d9565b156113d9576113506101206113609201516020808251830101910161127e565b916020808251830101910161127e565b815181516001600160a01b0390811691161491826113c5575b826113a6575b8261138957505090565b606091925081015160208151910120910151602081519101201490565b604080820151908301516001600160a01b03908116911614925061137f565b915060208201516020820151111591611379565b50505f90565b635f9bd90760e11b5f5260045ffd5b356001600160a01b0381168103610e655790565b91908110156114125760051b0190565b634e487b7160e01b5f52603260045260245ffd5b91908110156114125760051b8101359061013e1981360301821215610e65570190565b9192908181036114ca575f91345b82841061146957505050505050600190565b611474848388611402565b358181116114bb57611487858588611426565b30906001600160a01b039061149e9060e0016113ee565b16036114b05760019103930192611457565b505050505050505f90565b63044044a560e21b5f5260045ffd5b63251f56a160e21b5f5260045ffd5b6001600160401b03606082015116801515908161152a575b5061151b57608001516001600160401b031661150c57600190565b637b6227e960e11b5f5260045ffd5b631ab7da6b60e01b5f5260045ffd5b905042115f6114f1565b919060a0830151806115e657509160209161158561159794606060018060a01b03604085015116930151935160405196879586948594631272ff8b60e01b8652606060048701526064860190610fc8565b84810360031901602486015290610fa4565b90604483015203915afa908115610e5a575f916115b2575090565b90506020813d6020116115de575b816115cd60209383610efa565b81010312610e655761106790611146565b3d91506115c0565b92509050511490565b805f9172184f03e93ff9f4daa797ed6e38ed64bf6a1f0160401b821015611739575b806d04ee2d6d415b85acef8100000000600a92101561171e575b662386f26fc1000081101561170a575b6305f5e1008110156116f9575b6127108110156116ea575b60648110156116dc575b10156116d1575b600a6021600184019361167685610f43565b946116846040519687610efa565b808652611693601f1991610f43565b013660208701378401015b5f1901916f181899199a1a9b1b9c1cb0b131b232b360811b8282061a83530480156116cc57600a909161169e565b505090565b600190910190611664565b60646002910493019261165d565b61271060049104930192611653565b6305f5e10060089104930192611648565b662386f26fc100006010910493019261163b565b6d04ee2d6d415b85acef81000000006020910493019261162b565b506040915072184f03e93ff9f4daa797ed6e38ed64bf6a1f0160401b8104611611565b7f00000000000000000000000000000000000000000000000000000000000000006001600160a01b0316330361178e57565b634ca8886760e01b5f5260045ffdfea26469706673582212209d41ba6faa4926a34b7a3cd08daaa29a2d44d9bcb57777302b275b1d602b4bd164736f6c634300081a0033","linkReferences":{}},"methodIdentifiers":{"ATTESTATION_SCHEMA()":"5bf2f20d","attest((bytes32,bytes32,uint64,uint64,uint64,bytes32,address,address,bool,bytes))":"e60c3505","cancelStatement(bytes32)":"039b9bf6","checkStatement((bytes32,bytes32,uint64,uint64,uint64,bytes32,address,address,bool,bytes),bytes,bytes32)":"1272ff8b","collectPayment(bytes32,bytes32)":"30088bc9","getSchema()":"6b122fe0","getStatement(bytes32)":"5cc02d2f","isPayable()":"ce46e046","makeStatement((address,uint256,address,bytes),uint64,bytes32)":"48f9fb46","multiAttest((bytes32,bytes32,uint64,uint64,uint64,bytes32,address,address,bool,bytes)[],uint256[])":"91db0b7e","multiRevoke((bytes32,bytes32,uint64,uint64,uint64,bytes32,address,address,bool,bytes)[],uint256[])":"88e5b2d9","revoke((bytes32,bytes32,uint64,uint64,uint64,bytes32,address,address,bool,bytes))":"e49617e1","version()":"54fd4d50"},"id":51}