{"abi":[{"type":"constructor","inputs":[{"name":"_eas","type":"address","internalType":"contract IEAS"},{"name":"_schemaRegistry","type":"address","internalType":"contract ISchemaRegistry"}],"stateMutability":"nonpayable"},{"type":"receive","stateMutability":"payable"},{"type":"function","name":"ATTESTATION_SCHEMA","inputs":[],"outputs":[{"name":"","type":"bytes32","internalType":"bytes32"}],"stateMutability":"view"},{"type":"function","name":"attest","inputs":[{"name":"attestation","type":"tuple","internalType":"struct Attestation","components":[{"name":"uid","type":"bytes32","internalType":"bytes32"},{"name":"schema","type":"bytes32","internalType":"bytes32"},{"name":"time","type":"uint64","internalType":"uint64"},{"name":"expirationTime","type":"uint64","internalType":"uint64"},{"name":"revocationTime","type":"uint64","internalType":"uint64"},{"name":"refUID","type":"bytes32","internalType":"bytes32"},{"name":"recipient","type":"address","internalType":"address"},{"name":"attester","type":"address","internalType":"address"},{"name":"revocable","type":"bool","internalType":"bool"},{"name":"data","type":"bytes","internalType":"bytes"}]}],"outputs":[{"name":"","type":"bool","internalType":"bool"}],"stateMutability":"payable"},{"type":"function","name":"cancelStatement","inputs":[{"name":"uid","type":"bytes32","internalType":"bytes32"}],"outputs":[{"name":"","type":"bool","internalType":"bool"}],"stateMutability":"nonpayable"},{"type":"function","name":"checkStatement","inputs":[{"name":"statement","type":"tuple","internalType":"struct Attestation","components":[{"name":"uid","type":"bytes32","internalType":"bytes32"},{"name":"schema","type":"bytes32","internalType":"bytes32"},{"name":"time","type":"uint64","internalType":"uint64"},{"name":"expirationTime","type":"uint64","internalType":"uint64"},{"name":"revocationTime","type":"uint64","internalType":"uint64"},{"name":"refUID","type":"bytes32","internalType":"bytes32"},{"name":"recipient","type":"address","internalType":"address"},{"name":"attester","type":"address","internalType":"address"},{"name":"revocable","type":"bool","internalType":"bool"},{"name":"data","type":"bytes","internalType":"bytes"}]},{"name":"demand","type":"bytes","internalType":"bytes"},{"name":"","type":"bytes32","internalType":"bytes32"}],"outputs":[{"name":"","type":"bool","internalType":"bool"}],"stateMutability":"view"},{"type":"function","name":"collectPayment","inputs":[{"name":"_payment","type":"bytes32","internalType":"bytes32"},{"name":"_fulfillment","type":"bytes32","internalType":"bytes32"}],"outputs":[{"name":"","type":"bool","internalType":"bool"}],"stateMutability":"nonpayable"},{"type":"function","name":"getSchema","inputs":[],"outputs":[{"name":"","type":"tuple","internalType":"struct SchemaRecord","components":[{"name":"uid","type":"bytes32","internalType":"bytes32"},{"name":"resolver","type":"address","internalType":"contract ISchemaResolver"},{"name":"revocable","type":"bool","internalType":"bool"},{"name":"schema","type":"string","internalType":"string"}]}],"stateMutability":"view"},{"type":"function","name":"getStatement","inputs":[{"name":"uid","type":"bytes32","internalType":"bytes32"}],"outputs":[{"name":"","type":"tuple","internalType":"struct Attestation","components":[{"name":"uid","type":"bytes32","internalType":"bytes32"},{"name":"schema","type":"bytes32","internalType":"bytes32"},{"name":"time","type":"uint64","internalType":"uint64"},{"name":"expirationTime","type":"uint64","internalType":"uint64"},{"name":"revocationTime","type":"uint64","internalType":"uint64"},{"name":"refUID","type":"bytes32","internalType":"bytes32"},{"name":"recipient","type":"address","internalType":"address"},{"name":"attester","type":"address","internalType":"address"},{"name":"revocable","type":"bool","internalType":"bool"},{"name":"data","type":"bytes","internalType":"bytes"}]}],"stateMutability":"view"},{"type":"function","name":"isPayable","inputs":[],"outputs":[{"name":"","type":"bool","internalType":"bool"}],"stateMutability":"pure"},{"type":"function","name":"makeStatement","inputs":[{"name":"data","type":"tuple","internalType":"struct ERC20PaymentObligation.StatementData","components":[{"name":"token","type":"address","internalType":"address"},{"name":"amount","type":"uint256","internalType":"uint256"},{"name":"arbiter","type":"address","internalType":"address"},{"name":"demand","type":"bytes","internalType":"bytes"}]},{"name":"expirationTime","type":"uint64","internalType":"uint64"},{"name":"refUID","type":"bytes32","internalType":"bytes32"}],"outputs":[{"name":"uid_","type":"bytes32","internalType":"bytes32"}],"stateMutability":"nonpayable"},{"type":"function","name":"multiAttest","inputs":[{"name":"attestations","type":"tuple[]","internalType":"struct Attestation[]","components":[{"name":"uid","type":"bytes32","internalType":"bytes32"},{"name":"schema","type":"bytes32","internalType":"bytes32"},{"name":"time","type":"uint64","internalType":"uint64"},{"name":"expirationTime","type":"uint64","internalType":"uint64"},{"name":"revocationTime","type":"uint64","internalType":"uint64"},{"name":"refUID","type":"bytes32","internalType":"bytes32"},{"name":"recipient","type":"address","internalType":"address"},{"name":"attester","type":"address","internalType":"address"},{"name":"revocable","type":"bool","internalType":"bool"},{"name":"data","type":"bytes","internalType":"bytes"}]},{"name":"values","type":"uint256[]","internalType":"uint256[]"}],"outputs":[{"name":"","type":"bool","internalType":"bool"}],"stateMutability":"payable"},{"type":"function","name":"multiRevoke","inputs":[{"name":"attestations","type":"tuple[]","internalType":"struct Attestation[]","components":[{"name":"uid","type":"bytes32","internalType":"bytes32"},{"name":"schema","type":"bytes32","internalType":"bytes32"},{"name":"time","type":"uint64","internalType":"uint64"},{"name":"expirationTime","type":"uint64","internalType":"uint64"},{"name":"revocationTime","type":"uint64","internalType":"uint64"},{"name":"refUID","type":"bytes32","internalType":"bytes32"},{"name":"recipient","type":"address","internalType":"address"},{"name":"attester","type":"address","internalType":"address"},{"name":"revocable","type":"bool","internalType":"bool"},{"name":"data","type":"bytes","internalType":"bytes"}]},{"name":"values","type":"uint256[]","internalType":"uint256[]"}],"outputs":[{"name":"","type":"bool","internalType":"bool"}],"stateMutability":"payable"},{"type":"function","name":"revoke","inputs":[{"name":"attestation","type":"tuple","internalType":"struct Attestation","components":[{"name":"uid","type":"bytes32","internalType":"bytes32"},{"name":"schema","type":"bytes32","internalType":"bytes32"},{"name":"time","type":"uint64","internalType":"uint64"},{"name":"expirationTime","type":"uint64","internalType":"uint64"},{"name":"revocationTime","type":"uint64","internalType":"uint64"},{"name":"refUID","type":"bytes32","internalType":"bytes32"},{"name":"recipient","type":"address","internalType":"address"},{"name":"attester","type":"address","internalType":"address"},{"name":"revocable","type":"bool","internalType":"bool"},{"name":"data","type":"bytes","internalType":"bytes"}]}],"outputs":[{"name":"","type":"bool","internalType":"bool"}],"stateMutability":"payable"},{"type":"function","name":"version","inputs":[],"outputs":[{"name":"","type":"string","internalType":"string"}],"stateMutability":"view"},{"type":"event","name":"PaymentCancelled","inputs":[{"name":"payment","type":"bytes32","indexed":true,"internalType":"bytes32"}],"anonymous":false},{"type":"event","name":"PaymentClaimed","inputs":[{"name":"payment","type":"bytes32","indexed":true,"internalType":"bytes32"},{"name":"fulfillment","type":"bytes32","indexed":true,"internalType":"bytes32"},{"name":"fulfiller","type":"address","indexed":true,"internalType":"address"}],"anonymous":false},{"type":"event","name":"PaymentMade","inputs":[{"name":"payment","type":"bytes32","indexed":true,"internalType":"bytes32"},{"name":"buyer","type":"address","indexed":true,"internalType":"address"}],"anonymous":false},{"type":"error","name":"AccessDenied","inputs":[]},{"type":"error","name":"AttestationRevoked","inputs":[]},{"type":"error","name":"DeadlineExpired","inputs":[]},{"type":"error","name":"InsufficientValue","inputs":[]},{"type":"error","name":"InvalidEAS","inputs":[]},{"type":"error","name":"InvalidFulfillment","inputs":[]},{"type":"error","name":"InvalidLength","inputs":[]},{"type":"error","name":"InvalidPayment","inputs":[]},{"type":"error","name":"InvalidPaymentAttestation","inputs":[]},{"type":"error","name":"InvalidSchema","inputs":[]},{"type":"error","name":"NotFromStatement","inputs":[]},{"type":"error","name":"NotPayable","inputs":[]},{"type":"error","name":"UnauthorizedCall","inputs":[]}],"bytecode":{"object":"0x61016080604052346101ff57604081611afc80380380916100208285610239565b8339810103126101ff5780516001600160a01b038116918282036101ff5760200151916001600160a01b0383168084036101ff57604051606081016001600160401b0381118282101761022557604052603c815260208101927f6164647265737320746f6b656e2c2075696e7432353620616d6f756e742c206184527f64647265737320617262697465722c2062797465732064656d616e640000000060408301526001608052600360a0525f60c05215610216576084948460209560e05261012052610100525f604051958680958194630c1af44f60e31b8352606060048401525180918160648501528484015e818101830184905230602483015260016044830152601f01601f191681010301925af190811561020b575f916101d5575b506101405260405161189f908161025d823960805181610516015260a05181610542015260c0518161056d015260e0518161182a0152610100518161024c01526101205181818161040a01528181610844015281816109840152610d4401526101405181818161021a01528181610442015281816104d30152818161079701528181610a4d01528181610dbc01526113ca0152f35b90506020813d602011610203575b816101f060209383610239565b810103126101ff57515f610140565b5f80fd5b3d91506101e3565b6040513d5f823e3d90fd5b6341bc07ff60e11b5f5260045ffd5b634e487b7160e01b5f52604160045260245ffd5b601f909101601f19168101906001600160401b038211908210176102255760405256fe6080806040526004361015610029575b50361561001a575f80fd5b631574f9f360e01b5f5260045ffd5b5f803560e01c918263039b9bf614610d1c575081631272ff8b14610c0457816330088bc91461095257816348f9fb46146105fa57816354fd4d50146104f65781635bf2f20d146104bc5781635cc02d2f1461038f5781636b122fe0146101da57816388e5b2d91461015c57816391db0b7e14610133578163ce46e0461461011557508063e49617e1146100f85763e60c3505146100c6575f61000f565b60206100e460e06100d6366111b6565b6100de611828565b016114ba565b6040516001600160a01b0390911630148152f35b610101366111b6565b5061010a611828565b602060405160018152f35b34610130578060031936011261013057602090604051908152f35b80fd5b602061015261014136611166565b9261014d929192611828565b611515565b6040519015158152f35b61016536611166565b9092610172949294611828565b8185036101cb578291345b86841061018f57602060405160018152f35b61019a8483886114ce565b35908082116101bc57906001916101b2868a876114f2565b500393019261017d565b63044044a560e21b8652600486fd5b63251f56a160e21b8352600483fd5b346101305780600319360112610130576060806040516101f981610fab565b8381528360208201528360408201520152604051906351753e3760e11b82527f00000000000000000000000000000000000000000000000000000000000000006004830152808260248160018060a01b037f0000000000000000000000000000000000000000000000000000000000000000165afa9081156103835780916102c6575b6060826102c2604051928392602084528051602085015260018060a01b0360208201511660408501526040810151151582850152015160808084015260a0830190611070565b0390f35b90503d8082843e6102d78184610fc6565b82019160208184031261037f578051906001600160401b03821161037b570190608082840312610130576040519161030e83610fab565b8051835260208101516001600160a01b038116810361037b57602084015261033860408201611212565b60408401526060810151906001600160401b03821161037b57019083601f8301121561013057506060928160206103719351910161121f565b828201528261027c565b8280fd5b5080fd5b604051903d90823e3d90fd5b346101305760203660031901126101305760606101206040516103b181610f8f565b83815283602082015283604082015283838201528360808201528360a08201528360c08201528360e0820152836101008201520152604051906328c44a9960e21b82526004356004830152808260248160018060a01b037f0000000000000000000000000000000000000000000000000000000000000000165afa9182156104af57819261048b575b5060208201517f00000000000000000000000000000000000000000000000000000000000000000361047c57604051602080825281906102c290820185611094565b63295d5f3960e01b8152600490fd5b6104a89192503d8084833e6104a08183610fc6565b81019061126f565b908261043a565b50604051903d90823e3d90fd5b3461013057806003193601126101305760206040517f00000000000000000000000000000000000000000000000000000000000000008152f35b3461013057806003193601126101305760206105e660016102c29361053a7f00000000000000000000000000000000000000000000000000000000000000006116bb565b9082856105667f00000000000000000000000000000000000000000000000000000000000000006116bb565b81806105917f00000000000000000000000000000000000000000000000000000000000000006116bb565b926040519a888c995191829101848b015e880190601760f91b83830152805192839101602183015e010190601760f91b84830152805192839101600283015e010190838201520301601f198101835282610fc6565b604051918291602083526020830190611070565b3461013057606036600319011261013057600435906001600160401b038211610130578160040182360392608060031985011261037b57602435936001600160401b0385168095036108f6576001600160a01b03610657846114ba565b168460206024850135926064604051809481936323b872dd60e01b83523360048401523060248401528760448401525af1908115610947578691610909575b50156108fa57604051602080820152936001600160a01b03906106b890610ffb565b16604085015260608401526001600160a01b036106d760448401610ffb565b166080840152606482013590602219018112156108f657016024600482013591016001600160401b0382116108f65781360381136108f65782826107489360e093608060a08501528160c08501528484013785838284010152601f801991011681010301601f198101835282610fc6565b6040519260c084018481106001600160401b038211176108e257604052338452602084015260016040840152604435606084015260808301528060a0830152602060405161079581610f60565b7f000000000000000000000000000000000000000000000000000000000000000081528181019384526040518094819263f17325e760e01b8352846004840152516024830152516040604483015260018060a01b0381511660648301526001600160401b03848201511660848301526040810151151560a4830152606081015160c483015260a0610836608083015160c060e4860152610124850190611070565b9101516101048301520381847f00000000000000000000000000000000000000000000000000000000000000006001600160a01b03165af180156104af5781906108ad575b6020925060405191817f4b5d781b1f4414459813c44d669c7821fcdec72a83b67c0303229be68d03ad05339280a38152f35b50906020813d6020116108da575b816108c860209383610fc6565b8101031261037f57906020915161087b565b3d91506108bb565b634e487b7160e01b84526041600452602484fd5b8380fd5b63078d696560e31b8552600485fd5b90506020813d60201161093f575b8161092460209383610fc6565b8101031261093b5761093590611212565b87610696565b8580fd5b3d9150610917565b6040513d88823e3d90fd5b34610130576040366003190112610130576040516328c44a9960e21b81526004803590820181905290919060248035907f00000000000000000000000000000000000000000000000000000000000000006001600160a01b0316908490869081845afa948515610b83578495610be8575b506040516328c44a9960e21b815260048101839052948486602481855afa958615610ba3578596610bcc575b506109f9816115a5565b15610bbd5790610a2482610a1c610120899501516020808251830101910161134a565b978891611600565b15610bae57604051610a3581610f60565b84815285602082015260405190610a4b82610f60565b7f000000000000000000000000000000000000000000000000000000000000000082526020820152813b1561093b57604051634692626760e01b815281516004820152602091820151805160248301529091015160448201529085908290606490829084905af18015610ba357610b8e575b50845160c091909101805160209687015160405163a9059cbb60e01b81526001600160a01b0392831660048201526024810191909152969192879160449183918991165af18015610b8357610b49575b6020945060018060a01b03905116917fced69528a678782a1d1e4df8091720cac356dacb471a544bdb0c896a3162d3956040519480a460018152f35b6020853d602011610b7b575b81610b6260209383610fc6565b810103126108f657610b75602095611212565b50610b0d565b3d9150610b55565b6040513d86823e3d90fd5b610b99858092610fc6565b6108f65785610abd565b6040513d87823e3d90fd5b630ebe58ef60e11b8552600485fd5b633129ca1960e11b8552600485fd5b610be19196503d8087833e6104a08183610fc6565b94866109ef565b610bfd9195503d8086833e6104a08183610fc6565b93856109c3565b3461013057606036600319011261013057600435906001600160401b0382116101305761014060031983360301126101305760405191610c4383610f8f565b8060040135835260248101356020840152610c6060448201610fe7565b6040840152610c7160648201610fe7565b6060840152610c8260848201610fe7565b608084015260a481013560a0840152610c9d60c48201610ffb565b60c0840152610cae60e48201610ffb565b60e0840152610104810135801515810361037b576101008401526101248101356001600160401b03811161037b57610ceb9136910160040161102a565b610120830152602435906001600160401b03821161013057602061015284610d16366004870161102a565b906113c8565b9034610f31576020366003190112610f31576328c44a9960e21b8252600480359083018190527f00000000000000000000000000000000000000000000000000000000000000006001600160a01b03165f84602481845afa938415610f26575f94610f44575b5060c08401516001600160a01b03163303610f355760405190610da482610f60565b8282525f602083015260405191610dba83610f60565b7f000000000000000000000000000000000000000000000000000000000000000083526020830152803b15610f3157604051634692626760e01b815282516004820152602092830151805160248301529092015160448301525f908290606490829084905af18015610f2657610f0a575b506020610e85610e496101208596015183808251830101910161134a565b80519083015160405163a9059cbb60e01b815233600482015260248101919091529586926001600160a01b039092169183919082906044820190565b03925af18015610eff57610ec5575b602092507f5284be3d3122c1ff1d1ae65992c8c6b2808c7cf72b41d299de6cefc638263b446040519280a260018152f35b6020833d602011610ef7575b81610ede60209383610fc6565b8101031261037f57610ef1602093611212565b50610e94565b3d9150610ed1565b6040513d84823e3d90fd5b6101209392505f610f1a91610fc6565b9091505f906020610e2b565b6040513d5f823e3d90fd5b5f80fd5b637bf6a16f60e01b5f5260045ffd5b610f599194503d805f833e6104a08183610fc6565b9284610d82565b604081019081106001600160401b03821117610f7b57604052565b634e487b7160e01b5f52604160045260245ffd5b61014081019081106001600160401b03821117610f7b57604052565b608081019081106001600160401b03821117610f7b57604052565b90601f801991011681019081106001600160401b03821117610f7b57604052565b35906001600160401b0382168203610f3157565b35906001600160a01b0382168203610f3157565b6001600160401b038111610f7b57601f01601f191660200190565b81601f82011215610f31578035906110418261100f565b9261104f6040519485610fc6565b82845260208383010111610f3157815f926020809301838601378301015290565b805180835260209291819084018484015e5f828201840152601f01601f1916010190565b906101406101206111339380518452602081015160208501526001600160401b0360408201511660408501526001600160401b0360608201511660608501526001600160401b03608082015116608085015260a081015160a085015260018060a01b0360c08201511660c085015260018060a01b0360e08201511660e08501526101008101511515610100850152015191816101208201520190611070565b90565b9181601f84011215610f31578235916001600160401b038311610f31576020808501948460051b010111610f3157565b6040600319820112610f31576004356001600160401b038111610f31578161119091600401611136565b92909291602435906001600160401b038211610f31576111b291600401611136565b9091565b6020600319820112610f3157600435906001600160401b038211610f3157610140908290036003190112610f315760040190565b51906001600160401b0382168203610f3157565b51906001600160a01b0382168203610f3157565b51908115158203610f3157565b92919261122b8261100f565b916112396040519384610fc6565b829481845281830111610f31578281602093845f96015e010152565b9080601f83011215610f315781516111339260200161121f565b602081830312610f31578051906001600160401b038211610f31570161014081830312610f3157604051916112a383610f8f565b81518352602082015160208401526112bd604083016111ea565b60408401526112ce606083016111ea565b60608401526112df608083016111ea565b608084015260a082015160a08401526112fa60c083016111fe565b60c084015261130b60e083016111fe565b60e084015261131d6101008301611212565b6101008401526101208201516001600160401b038111610f31576113419201611255565b61012082015290565b602081830312610f31578051906001600160401b038211610f315701608081830312610f31576040519161137d83610fab565b611386826111fe565b83526020820151602084015261139e604083016111fe565b604084015260608201516001600160401b038111610f31576113c09201611255565b606082015290565b7f00000000000000000000000000000000000000000000000000000000000000006020820151036114ab576113fc816115a5565b156114a55761141c61012061142c9201516020808251830101910161134a565b916020808251830101910161134a565b815181516001600160a01b039081169116149182611491575b82611472575b8261145557505090565b606091925081015160208151910120910151602081519101201490565b604080820151908301516001600160a01b03908116911614925061144b565b915060208201516020820151111591611445565b50505f90565b635f9bd90760e11b5f5260045ffd5b356001600160a01b0381168103610f315790565b91908110156114de5760051b0190565b634e487b7160e01b5f52603260045260245ffd5b91908110156114de5760051b8101359061013e1981360301821215610f31570190565b919290818103611596575f91345b82841061153557505050505050600190565b6115408483886114ce565b35818111611587576115538585886114f2565b30906001600160a01b039061156a9060e0016114ba565b160361157c5760019103930192611523565b505050505050505f90565b63044044a560e21b5f5260045ffd5b63251f56a160e21b5f5260045ffd5b6001600160401b0360608201511680151590816115f6575b506115e757608001516001600160401b03166115d857600190565b637b6227e960e11b5f5260045ffd5b631ab7da6b60e01b5f5260045ffd5b905042115f6115bd565b919060a0830151806116b257509160209161165161166394606060018060a01b03604085015116930151935160405196879586948594631272ff8b60e01b8652606060048701526064860190611094565b84810360031901602486015290611070565b90604483015203915afa908115610f26575f9161167e575090565b90506020813d6020116116aa575b8161169960209383610fc6565b81010312610f315761113390611212565b3d915061168c565b92509050511490565b805f9172184f03e93ff9f4daa797ed6e38ed64bf6a1f0160401b821015611805575b806d04ee2d6d415b85acef8100000000600a9210156117ea575b662386f26fc100008110156117d6575b6305f5e1008110156117c5575b6127108110156117b6575b60648110156117a8575b101561179d575b600a602160018401936117428561100f565b946117506040519687610fc6565b80865261175f601f199161100f565b013660208701378401015b5f1901916f181899199a1a9b1b9c1cb0b131b232b360811b8282061a835304801561179857600a909161176a565b505090565b600190910190611730565b606460029104930192611729565b6127106004910493019261171f565b6305f5e10060089104930192611714565b662386f26fc1000060109104930192611707565b6d04ee2d6d415b85acef8100000000602091049301926116f7565b506040915072184f03e93ff9f4daa797ed6e38ed64bf6a1f0160401b81046116dd565b7f00000000000000000000000000000000000000000000000000000000000000006001600160a01b0316330361185a57565b634ca8886760e01b5f5260045ffdfea2646970667358221220c124b9e7e88a179eadc66d58609f5f2c78a32deb9a3dab8a63946e0e980b4b5664736f6c634300081a0033","linkReferences":{}},"methodIdentifiers":{"ATTESTATION_SCHEMA()":"5bf2f20d","attest((bytes32,bytes32,uint64,uint64,uint64,bytes32,address,address,bool,bytes))":"e60c3505","cancelStatement(bytes32)":"039b9bf6","checkStatement((bytes32,bytes32,uint64,uint64,uint64,bytes32,address,address,bool,bytes),bytes,bytes32)":"1272ff8b","collectPayment(bytes32,bytes32)":"30088bc9","getSchema()":"6b122fe0","getStatement(bytes32)":"5cc02d2f","isPayable()":"ce46e046","makeStatement((address,uint256,address,bytes),uint64,bytes32)":"48f9fb46","multiAttest((bytes32,bytes32,uint64,uint64,uint64,bytes32,address,address,bool,bytes)[],uint256[])":"91db0b7e","multiRevoke((bytes32,bytes32,uint64,uint64,uint64,bytes32,address,address,bool,bytes)[],uint256[])":"88e5b2d9","revoke((bytes32,bytes32,uint64,uint64,uint64,bytes32,address,address,bool,bytes))":"e49617e1","version()":"54fd4d50"},"id":51}