{"abi":[{"type":"constructor","inputs":[{"name":"_eas","type":"address","internalType":"contract IEAS"},{"name":"_schemaRegistry","type":"address","internalType":"contract ISchemaRegistry"}],"stateMutability":"nonpayable"},{"type":"receive","stateMutability":"payable"},{"type":"function","name":"ATTESTATION_SCHEMA","inputs":[],"outputs":[{"name":"","type":"bytes32","internalType":"bytes32"}],"stateMutability":"view"},{"type":"function","name":"attest","inputs":[{"name":"attestation","type":"tuple","internalType":"struct Attestation","components":[{"name":"uid","type":"bytes32","internalType":"bytes32"},{"name":"schema","type":"bytes32","internalType":"bytes32"},{"name":"time","type":"uint64","internalType":"uint64"},{"name":"expirationTime","type":"uint64","internalType":"uint64"},{"name":"revocationTime","type":"uint64","internalType":"uint64"},{"name":"refUID","type":"bytes32","internalType":"bytes32"},{"name":"recipient","type":"address","internalType":"address"},{"name":"attester","type":"address","internalType":"address"},{"name":"revocable","type":"bool","internalType":"bool"},{"name":"data","type":"bytes","internalType":"bytes"}]}],"outputs":[{"name":"","type":"bool","internalType":"bool"}],"stateMutability":"payable"},{"type":"function","name":"checkStatement","inputs":[{"name":"statement","type":"tuple","internalType":"struct Attestation","components":[{"name":"uid","type":"bytes32","internalType":"bytes32"},{"name":"schema","type":"bytes32","internalType":"bytes32"},{"name":"time","type":"uint64","internalType":"uint64"},{"name":"expirationTime","type":"uint64","internalType":"uint64"},{"name":"revocationTime","type":"uint64","internalType":"uint64"},{"name":"refUID","type":"bytes32","internalType":"bytes32"},{"name":"recipient","type":"address","internalType":"address"},{"name":"attester","type":"address","internalType":"address"},{"name":"revocable","type":"bool","internalType":"bool"},{"name":"data","type":"bytes","internalType":"bytes"}]},{"name":"demand","type":"bytes","internalType":"bytes"},{"name":"","type":"bytes32","internalType":"bytes32"}],"outputs":[{"name":"","type":"bool","internalType":"bool"}],"stateMutability":"view"},{"type":"function","name":"collectExpired","inputs":[{"name":"uid","type":"bytes32","internalType":"bytes32"}],"outputs":[{"name":"","type":"bool","internalType":"bool"}],"stateMutability":"nonpayable"},{"type":"function","name":"collectPayment","inputs":[{"name":"_payment","type":"bytes32","internalType":"bytes32"},{"name":"_fulfillment","type":"bytes32","internalType":"bytes32"}],"outputs":[{"name":"","type":"bool","internalType":"bool"}],"stateMutability":"nonpayable"},{"type":"function","name":"getSchema","inputs":[],"outputs":[{"name":"","type":"tuple","internalType":"struct SchemaRecord","components":[{"name":"uid","type":"bytes32","internalType":"bytes32"},{"name":"resolver","type":"address","internalType":"contract ISchemaResolver"},{"name":"revocable","type":"bool","internalType":"bool"},{"name":"schema","type":"string","internalType":"string"}]}],"stateMutability":"view"},{"type":"function","name":"getStatement","inputs":[{"name":"uid","type":"bytes32","internalType":"bytes32"}],"outputs":[{"name":"","type":"tuple","internalType":"struct Attestation","components":[{"name":"uid","type":"bytes32","internalType":"bytes32"},{"name":"schema","type":"bytes32","internalType":"bytes32"},{"name":"time","type":"uint64","internalType":"uint64"},{"name":"expirationTime","type":"uint64","internalType":"uint64"},{"name":"revocationTime","type":"uint64","internalType":"uint64"},{"name":"refUID","type":"bytes32","internalType":"bytes32"},{"name":"recipient","type":"address","internalType":"address"},{"name":"attester","type":"address","internalType":"address"},{"name":"revocable","type":"bool","internalType":"bool"},{"name":"data","type":"bytes","internalType":"bytes"}]}],"stateMutability":"view"},{"type":"function","name":"isPayable","inputs":[],"outputs":[{"name":"","type":"bool","internalType":"bool"}],"stateMutability":"pure"},{"type":"function","name":"makeStatement","inputs":[{"name":"data","type":"tuple","internalType":"struct ERC721EscrowObligation.StatementData","components":[{"name":"token","type":"address","internalType":"address"},{"name":"tokenId","type":"uint256","internalType":"uint256"},{"name":"arbiter","type":"address","internalType":"address"},{"name":"demand","type":"bytes","internalType":"bytes"}]},{"name":"expirationTime","type":"uint64","internalType":"uint64"}],"outputs":[{"name":"uid_","type":"bytes32","internalType":"bytes32"}],"stateMutability":"nonpayable"},{"type":"function","name":"makeStatementFor","inputs":[{"name":"data","type":"tuple","internalType":"struct ERC721EscrowObligation.StatementData","components":[{"name":"token","type":"address","internalType":"address"},{"name":"tokenId","type":"uint256","internalType":"uint256"},{"name":"arbiter","type":"address","internalType":"address"},{"name":"demand","type":"bytes","internalType":"bytes"}]},{"name":"expirationTime","type":"uint64","internalType":"uint64"},{"name":"payer","type":"address","internalType":"address"},{"name":"recipient","type":"address","internalType":"address"}],"outputs":[{"name":"uid_","type":"bytes32","internalType":"bytes32"}],"stateMutability":"nonpayable"},{"type":"function","name":"multiAttest","inputs":[{"name":"attestations","type":"tuple[]","internalType":"struct Attestation[]","components":[{"name":"uid","type":"bytes32","internalType":"bytes32"},{"name":"schema","type":"bytes32","internalType":"bytes32"},{"name":"time","type":"uint64","internalType":"uint64"},{"name":"expirationTime","type":"uint64","internalType":"uint64"},{"name":"revocationTime","type":"uint64","internalType":"uint64"},{"name":"refUID","type":"bytes32","internalType":"bytes32"},{"name":"recipient","type":"address","internalType":"address"},{"name":"attester","type":"address","internalType":"address"},{"name":"revocable","type":"bool","internalType":"bool"},{"name":"data","type":"bytes","internalType":"bytes"}]},{"name":"values","type":"uint256[]","internalType":"uint256[]"}],"outputs":[{"name":"","type":"bool","internalType":"bool"}],"stateMutability":"payable"},{"type":"function","name":"multiRevoke","inputs":[{"name":"attestations","type":"tuple[]","internalType":"struct Attestation[]","components":[{"name":"uid","type":"bytes32","internalType":"bytes32"},{"name":"schema","type":"bytes32","internalType":"bytes32"},{"name":"time","type":"uint64","internalType":"uint64"},{"name":"expirationTime","type":"uint64","internalType":"uint64"},{"name":"revocationTime","type":"uint64","internalType":"uint64"},{"name":"refUID","type":"bytes32","internalType":"bytes32"},{"name":"recipient","type":"address","internalType":"address"},{"name":"attester","type":"address","internalType":"address"},{"name":"revocable","type":"bool","internalType":"bool"},{"name":"data","type":"bytes","internalType":"bytes"}]},{"name":"values","type":"uint256[]","internalType":"uint256[]"}],"outputs":[{"name":"","type":"bool","internalType":"bool"}],"stateMutability":"payable"},{"type":"function","name":"revoke","inputs":[{"name":"attestation","type":"tuple","internalType":"struct Attestation","components":[{"name":"uid","type":"bytes32","internalType":"bytes32"},{"name":"schema","type":"bytes32","internalType":"bytes32"},{"name":"time","type":"uint64","internalType":"uint64"},{"name":"expirationTime","type":"uint64","internalType":"uint64"},{"name":"revocationTime","type":"uint64","internalType":"uint64"},{"name":"refUID","type":"bytes32","internalType":"bytes32"},{"name":"recipient","type":"address","internalType":"address"},{"name":"attester","type":"address","internalType":"address"},{"name":"revocable","type":"bool","internalType":"bool"},{"name":"data","type":"bytes","internalType":"bytes"}]}],"outputs":[{"name":"","type":"bool","internalType":"bool"}],"stateMutability":"payable"},{"type":"function","name":"version","inputs":[],"outputs":[{"name":"","type":"string","internalType":"string"}],"stateMutability":"view"},{"type":"event","name":"EscrowClaimed","inputs":[{"name":"payment","type":"bytes32","indexed":true,"internalType":"bytes32"},{"name":"fulfillment","type":"bytes32","indexed":true,"internalType":"bytes32"},{"name":"fulfiller","type":"address","indexed":true,"internalType":"address"}],"anonymous":false},{"type":"event","name":"EscrowMade","inputs":[{"name":"payment","type":"bytes32","indexed":true,"internalType":"bytes32"},{"name":"buyer","type":"address","indexed":true,"internalType":"address"}],"anonymous":false},{"type":"error","name":"AccessDenied","inputs":[]},{"type":"error","name":"AttestationRevoked","inputs":[]},{"type":"error","name":"DeadlineExpired","inputs":[]},{"type":"error","name":"InsufficientValue","inputs":[]},{"type":"error","name":"InvalidEAS","inputs":[]},{"type":"error","name":"InvalidEscrow","inputs":[]},{"type":"error","name":"InvalidEscrowAttestation","inputs":[]},{"type":"error","name":"InvalidFulfillment","inputs":[]},{"type":"error","name":"InvalidLength","inputs":[]},{"type":"error","name":"InvalidSchema","inputs":[]},{"type":"error","name":"NotFromStatement","inputs":[]},{"type":"error","name":"NotPayable","inputs":[]},{"type":"error","name":"UnauthorizedCall","inputs":[]}],"bytecode":{"object":"0x61016080604052346101f85760408161194280380380916100208285610232565b8339810103126101f85780516001600160a01b038116918282036101f85760200151916001600160a01b0383168084036101f857604051606081016001600160401b0381118282101761021e57604052603d815260208101927f6164647265737320746f6b656e2c2075696e7432353620746f6b656e49642c2084527f6164647265737320617262697465722c2062797465732064656d616e6400000060408301526001608052600360a0525f60c0521561020f576084948460209560e05261012052610100525f604051958680958194630c1af44f60e31b8352606060048401525180918160648501528484015e818101830184905230602483015260016044830152601f01601f191681010301925af1908115610204575f916101ce575b50610140526040516116ec9081610256823960805181610652015260a0518161067e015260c051816106a9015260e051816116770152610100518161039801526101205181818161014e0152818161054e015281816107ac015261130c015261014051818181610366015281816105860152818161060f015281816108d401528181610eea015261125f0152f35b90506020813d6020116101fc575b816101e960209383610232565b810103126101f857515f610140565b5f80fd5b3d91506101dc565b6040513d5f823e3d90fd5b6341bc07ff60e11b5f5260045ffd5b634e487b7160e01b5f52604160045260245ffd5b601f909101601f19168101906001600160401b0382119082101761021e5760405256fe6080806040526004361015610029575b50361561001a575f80fd5b631574f9f360e01b5f5260045ffd5b5f803560e01c9182631272ff8b14610a525750816330088bc91461078257816347c0d9c21461073657816354fd4d50146106325781635bf2f20d146105f85781635cc02d2f146104d35781636b122fe0146103265781636b728707146102a557816388e5b2d91461027c57816391db0b7e1461027c578163a84f2aa014610121578163ce46e0461461010357508063e49617e1146100d15763e60c3505146100d1575f61000f565b60206100ef60e06100e136610dd2565b6100e9611675565b016110d5565b6040516001600160a01b0390911630148152f35b3461011e578060031936011261011e57602090604051908152f35b80fd5b3461011e57602036600319011261011e576040516328c44a9960e21b8152600480359082015281816024817f00000000000000000000000000000000000000000000000000000000000000006001600160a01b03165afa90811561023c57829161025a575b506001600160401b03606082015116421061024b57816101b461012083015160208082518301019101610e6a565b805160c0909301516020909101516001600160a01b0391821693909116803b15610247576040516323b872dd60e01b81523060048201526001600160a01b03909416602485015260448401919091528290818381606481015b03925af1801561023c57610227575b602060405160018152f35b610232828092610bcc565b61011e578061021c565b6040513d84823e3d90fd5b8280fd5b637bf6a16f60e01b8252600482fd5b61027691503d8084833e61026e8183610bcc565b810190610ffa565b82610186565b602061029b61028a36610d82565b92610296929192611675565b61141d565b6040519015158152f35b3461011e57608036600319011261011e576004356001600160401b0381116103225760806003198236030112610322576102dd610bed565b604435916001600160a01b038316830361031e57606435936001600160a01b038516850361011e576020610316868686866004016110e9565b604051908152f35b8380fd5b5080fd5b3461011e578060031936011261011e5760608060405161034581610bb1565b8381528360208201528360408201520152604051906351753e3760e11b82527f00000000000000000000000000000000000000000000000000000000000000006004830152808260248160018060a01b037f0000000000000000000000000000000000000000000000000000000000000000165afa9081156104c7578091610412575b60608261040e604051928392602084528051602085015260018060a01b0360208201511660408501526040810151151582850152015160808084015260a0830190610c8c565b0390f35b90503d8082843e6104238184610bcc565b820191602081840312610322578051906001600160401b03821161024757019060808284031261011e576040519161045a83610bb1565b8051835260208101516001600160a01b038116810361024757602084015261048460408201610fed565b60408401526060810151906001600160401b03821161024757019083601f8301121561011e57506060928160206104bd93519101610e1a565b82820152826103c8565b604051903d90823e3d90fd5b3461011e57602036600319011261011e5760606101206040516104f581610b66565b83815283602082015283604082015283838201528360808201528360a08201528360c08201528360e0820152836101008201520152604051906328c44a9960e21b82526004356004830152808260248160018060a01b037f0000000000000000000000000000000000000000000000000000000000000000165afa9182156105eb5781926105cf575b5060208201517f0000000000000000000000000000000000000000000000000000000000000000036105c0576040516020808252819061040e90820185610cb0565b63295d5f3960e01b8152600490fd5b6105e49192503d8084833e61026e8183610bcc565b908261057e565b50604051903d90823e3d90fd5b3461011e578060031936011261011e5760206040517f00000000000000000000000000000000000000000000000000000000000000008152f35b3461011e578060031936011261011e576020610722600161040e936106767f0000000000000000000000000000000000000000000000000000000000000000611508565b9082856106a27f0000000000000000000000000000000000000000000000000000000000000000611508565b81806106cd7f0000000000000000000000000000000000000000000000000000000000000000611508565b926040519a888c995191829101848b015e880190601760f91b83830152805192839101602183015e010190601760f91b84830152805192839101600283015e010190838201520301601f198101835282610bcc565b604051918291602083526020830190610c8c565b3461011e57604036600319011261011e57600435906001600160401b03821161011e576080600319833603011261011e57602061031683610775610bed565b90339133916004016110e9565b346109be5760403660031901126109be576040516328c44a9960e21b8152600480359082018190527f00000000000000000000000000000000000000000000000000000000000000006001600160a01b03165f83602481845afa9283156109b3575f93610a36575b50604051916328c44a9960e21b835260243560048401525f83602481855afa9283156109b3575f93610a1a575b50610821846114ad565b15610a0b5761083e61012085015160208082518301019101610e6a565b93602061089260018060a01b036040880151166060880151935193604051809581948293631272ff8b60e01b845260606004850152610880606485018d610cb0565b84810360031901602486015290610c8c565b90604483015203915afa9081156109b3575f916109d1575b50156109c257604051906108bd82610b96565b81525f6020820152604051906108d282610b96565b7f0000000000000000000000000000000000000000000000000000000000000000825260208201908152823b156109be5760645f92836020956040519687958694634692626760e01b86525160048601525180516024860152015160448401525af180156109b35761099e575b50815160c090910151602092909201516001600160a01b0392831692849216803b15610247576040516323b872dd60e01b81523060048201526001600160a01b039094166024850152604484019190915282908183816064810161020d565b6109ab9193505f90610bcc565b5f918361093f565b6040513d5f823e3d90fd5b5f80fd5b630ebe58ef60e11b5f5260045ffd5b90506020813d602011610a03575b816109ec60209383610bcc565b810103126109be576109fd90610fed565b866108aa565b3d91506109df565b63629cd40b60e11b5f5260045ffd5b610a2f9193503d805f833e61026e8183610bcc565b9185610817565b610a4b9193503d805f833e61026e8183610bcc565b91846107ea565b346109be5760603660031901126109be576004356001600160401b0381116109be5761014060031982360301126109be57610a8c82610b66565b8060040135825260248101356020830152610aa960448201610c03565b6040830152610aba60648201610c03565b6060830152610acb60848201610c03565b608083015260a481013560a0830152610ae660c48201610c17565b60c0830152610af760e48201610c17565b60e083015261010481013580151581036109be57610100830152610124810135906001600160401b0382116109be576004610b359236920101610c46565b6101208201526024356001600160401b0381116109be57602091610b6061029b923690600401610c46565b90610ee8565b61014081019081106001600160401b03821117610b8257604052565b634e487b7160e01b5f52604160045260245ffd5b604081019081106001600160401b03821117610b8257604052565b608081019081106001600160401b03821117610b8257604052565b90601f801991011681019081106001600160401b03821117610b8257604052565b602435906001600160401b03821682036109be57565b35906001600160401b03821682036109be57565b35906001600160a01b03821682036109be57565b6001600160401b038111610b8257601f01601f191660200190565b81601f820112156109be57803590610c5d82610c2b565b92610c6b6040519485610bcc565b828452602083830101116109be57815f926020809301838601378301015290565b805180835260209291819084018484015e5f828201840152601f01601f1916010190565b90610140610120610d4f9380518452602081015160208501526001600160401b0360408201511660408501526001600160401b0360608201511660608501526001600160401b03608082015116608085015260a081015160a085015260018060a01b0360c08201511660c085015260018060a01b0360e08201511660e08501526101008101511515610100850152015191816101208201520190610c8c565b90565b9181601f840112156109be578235916001600160401b0383116109be576020808501948460051b0101116109be57565b60406003198201126109be576004356001600160401b0381116109be5781610dac91600401610d52565b92909291602435906001600160401b0382116109be57610dce91600401610d52565b9091565b60206003198201126109be57600435906001600160401b0382116109be576101409082900360031901126109be5760040190565b51906001600160a01b03821682036109be57565b929192610e2682610c2b565b91610e346040519384610bcc565b8294818452818301116109be578281602093845f96015e010152565b9080601f830112156109be578151610d4f92602001610e1a565b6020818303126109be578051906001600160401b0382116109be57016080818303126109be5760405191610e9d83610bb1565b610ea682610e06565b835260208201516020840152610ebe60408301610e06565b604084015260608201516001600160401b0381116109be57610ee09201610e50565b606082015290565b7f0000000000000000000000000000000000000000000000000000000000000000602082015103610fca57610f1c816114ad565b15610fc457610f3c610120610f4c92015160208082518301019101610e6a565b9160208082518301019101610e6a565b815181516001600160a01b039081169116149182610fb1575b82610f92575b82610f7557505090565b606091925081015160208151910120910151602081519101201490565b604080820151908301516001600160a01b039081169116149250610f6b565b9150602082015160208201511491610f65565b50505f90565b635f9bd90760e11b5f5260045ffd5b51906001600160401b03821682036109be57565b519081151582036109be57565b6020818303126109be578051906001600160401b0382116109be5701610140818303126109be576040519161102e83610b66565b815183526020820151602084015261104860408301610fd9565b604084015261105960608301610fd9565b606084015261106a60808301610fd9565b608084015260a082015160a084015261108560c08301610e06565b60c084015261109660e08301610e06565b60e08401526110a86101008301610fed565b6101008401526101208201516001600160401b0381116109be576110cc9201610e50565b61012082015290565b356001600160a01b03811681036109be5790565b939290916110f6856110d5565b5f9560208101359290916001600160a01b0316803b156109be576040516323b872dd60e01b81526001600160a01b03929092166004830152306024830152604482018490525f908290606490829084905af180156109b3576113c1575b50604051602080820152916001600160a01b0361116f83610c17565b166040840152606083015260018060a01b0361118d60408301610c17565b1660808301526060810135601e19823603018112156113bd5701602081359101906001600160401b0381116113bd5780360382136113bd57828160e0926111fe94608060a08501528160c08501528484013788838284010152601f801991011681010301601f198101835282610bcc565b6040519160c083018381106001600160401b038211176113a957906001600160401b039160405260018060a01b0316938484521660208301526001604083015284606083015260808201528360a0820152602060405161125d81610b96565b7f000000000000000000000000000000000000000000000000000000000000000081528181019283526040518093819263f17325e760e01b8352846004840152516024830152516040604483015260018060a01b0381511660648301526001600160401b03848201511660848301526040810151151560a4830152606081015160c483015260a06112fe608083015160c060e4860152610124850190610c8c565b9101516101048301520381877f00000000000000000000000000000000000000000000000000000000000000006001600160a01b03165af190811561139e57849161136c575b507f8f7f2dbafd79125e808bf16a53d7fa4e17b8b6374ced76d946a45f94b7bf4d06819480a3565b90506020813d602011611396575b8161138760209383610bcc565b8101031261031e57515f611344565b3d915061137a565b6040513d86823e3d90fd5b634e487b7160e01b87526041600452602487fd5b8680fd5b6113ce9196505f90610bcc565b5f945f611153565b91908110156113e65760051b0190565b634e487b7160e01b5f52603260045260245ffd5b91908110156113e65760051b8101359061013e19813603018212156109be570190565b91929081810361149e575f91345b82841061143d57505050505050600190565b6114488483886113d6565b3581811161148f5761145b8585886113fa565b30906001600160a01b03906114729060e0016110d5565b1603611484576001910393019261142b565b505050505050505f90565b63044044a560e21b5f5260045ffd5b63251f56a160e21b5f5260045ffd5b6001600160401b0360608201511680151590816114fe575b506114ef57608001516001600160401b03166114e057600190565b637b6227e960e11b5f5260045ffd5b631ab7da6b60e01b5f5260045ffd5b905042115f6114c5565b805f9172184f03e93ff9f4daa797ed6e38ed64bf6a1f0160401b821015611652575b806d04ee2d6d415b85acef8100000000600a921015611637575b662386f26fc10000811015611623575b6305f5e100811015611612575b612710811015611603575b60648110156115f5575b10156115ea575b600a6021600184019361158f85610c2b565b9461159d6040519687610bcc565b8086526115ac601f1991610c2b565b013660208701378401015b5f1901916f181899199a1a9b1b9c1cb0b131b232b360811b8282061a83530480156115e557600a90916115b7565b505090565b60019091019061157d565b606460029104930192611576565b6127106004910493019261156c565b6305f5e10060089104930192611561565b662386f26fc1000060109104930192611554565b6d04ee2d6d415b85acef810000000060209104930192611544565b506040915072184f03e93ff9f4daa797ed6e38ed64bf6a1f0160401b810461152a565b7f00000000000000000000000000000000000000000000000000000000000000006001600160a01b031633036116a757565b634ca8886760e01b5f5260045ffdfea2646970667358221220e9b9f0d5fc1f45eceae7b8df9338497d0b3b8636e147e58f100c9beada22078864736f6c634300081a0033","linkReferences":{}},"methodIdentifiers":{"ATTESTATION_SCHEMA()":"5bf2f20d","attest((bytes32,bytes32,uint64,uint64,uint64,bytes32,address,address,bool,bytes))":"e60c3505","checkStatement((bytes32,bytes32,uint64,uint64,uint64,bytes32,address,address,bool,bytes),bytes,bytes32)":"1272ff8b","collectExpired(bytes32)":"a84f2aa0","collectPayment(bytes32,bytes32)":"30088bc9","getSchema()":"6b122fe0","getStatement(bytes32)":"5cc02d2f","isPayable()":"ce46e046","makeStatement((address,uint256,address,bytes),uint64)":"47c0d9c2","makeStatementFor((address,uint256,address,bytes),uint64,address,address)":"6b728707","multiAttest((bytes32,bytes32,uint64,uint64,uint64,bytes32,address,address,bool,bytes)[],uint256[])":"91db0b7e","multiRevoke((bytes32,bytes32,uint64,uint64,uint64,bytes32,address,address,bool,bytes)[],uint256[])":"88e5b2d9","revoke((bytes32,bytes32,uint64,uint64,uint64,bytes32,address,address,bool,bytes))":"e49617e1","version()":"54fd4d50"},"id":75}