{
	"abi": [
		{
			"type": "constructor",
			"inputs": [
				{
					"name": "_eas",
					"type": "address",
					"internalType": "contract IEAS"
				},
				{
					"name": "_erc20Escrow",
					"type": "address",
					"internalType": "contract ERC20EscrowObligation"
				},
				{
					"name": "_erc20Payment",
					"type": "address",
					"internalType": "contract ERC20PaymentObligation"
				}
			],
			"stateMutability": "nonpayable"
		},
		{
			"type": "function",
			"name": "buyErc20ForErc20",
			"inputs": [
				{
					"name": "bidToken",
					"type": "address",
					"internalType": "address"
				},
				{
					"name": "bidAmount",
					"type": "uint256",
					"internalType": "uint256"
				},
				{
					"name": "askToken",
					"type": "address",
					"internalType": "address"
				},
				{
					"name": "askAmount",
					"type": "uint256",
					"internalType": "uint256"
				},
				{
					"name": "expiration",
					"type": "uint64",
					"internalType": "uint64"
				}
			],
			"outputs": [
				{
					"name": "",
					"type": "bytes32",
					"internalType": "bytes32"
				}
			],
			"stateMutability": "nonpayable"
		},
		{
			"type": "function",
			"name": "payErc20ForErc20",
			"inputs": [
				{
					"name": "buyAttestation",
					"type": "bytes32",
					"internalType": "bytes32"
				}
			],
			"outputs": [
				{
					"name": "",
					"type": "bytes32",
					"internalType": "bytes32"
				}
			],
			"stateMutability": "nonpayable"
		},
		{
			"type": "function",
			"name": "permitAndBuyErc20ForErc20",
			"inputs": [
				{
					"name": "bidToken",
					"type": "address",
					"internalType": "address"
				},
				{
					"name": "bidAmount",
					"type": "uint256",
					"internalType": "uint256"
				},
				{
					"name": "askToken",
					"type": "address",
					"internalType": "address"
				},
				{
					"name": "askAmount",
					"type": "uint256",
					"internalType": "uint256"
				},
				{
					"name": "expiration",
					"type": "uint64",
					"internalType": "uint64"
				},
				{
					"name": "deadline",
					"type": "uint256",
					"internalType": "uint256"
				},
				{
					"name": "v",
					"type": "uint8",
					"internalType": "uint8"
				},
				{
					"name": "r",
					"type": "bytes32",
					"internalType": "bytes32"
				},
				{
					"name": "s",
					"type": "bytes32",
					"internalType": "bytes32"
				}
			],
			"outputs": [
				{
					"name": "",
					"type": "bytes32",
					"internalType": "bytes32"
				}
			],
			"stateMutability": "nonpayable"
		},
		{
			"type": "function",
			"name": "permitAndBuyWithErc20",
			"inputs": [
				{
					"name": "token",
					"type": "address",
					"internalType": "address"
				},
				{
					"name": "amount",
					"type": "uint256",
					"internalType": "uint256"
				},
				{
					"name": "arbiter",
					"type": "address",
					"internalType": "address"
				},
				{
					"name": "demand",
					"type": "bytes",
					"internalType": "bytes"
				},
				{
					"name": "expiration",
					"type": "uint64",
					"internalType": "uint64"
				},
				{
					"name": "deadline",
					"type": "uint256",
					"internalType": "uint256"
				},
				{
					"name": "v",
					"type": "uint8",
					"internalType": "uint8"
				},
				{
					"name": "r",
					"type": "bytes32",
					"internalType": "bytes32"
				},
				{
					"name": "s",
					"type": "bytes32",
					"internalType": "bytes32"
				}
			],
			"outputs": [
				{
					"name": "",
					"type": "bytes32",
					"internalType": "bytes32"
				}
			],
			"stateMutability": "nonpayable"
		},
		{
			"type": "function",
			"name": "permitAndPayErc20ForErc20",
			"inputs": [
				{
					"name": "buyAttestation",
					"type": "bytes32",
					"internalType": "bytes32"
				},
				{
					"name": "deadline",
					"type": "uint256",
					"internalType": "uint256"
				},
				{
					"name": "v",
					"type": "uint8",
					"internalType": "uint8"
				},
				{
					"name": "r",
					"type": "bytes32",
					"internalType": "bytes32"
				},
				{
					"name": "s",
					"type": "bytes32",
					"internalType": "bytes32"
				}
			],
			"outputs": [
				{
					"name": "",
					"type": "bytes32",
					"internalType": "bytes32"
				}
			],
			"stateMutability": "nonpayable"
		},
		{
			"type": "function",
			"name": "permitAndPayWithErc20",
			"inputs": [
				{
					"name": "token",
					"type": "address",
					"internalType": "address"
				},
				{
					"name": "amount",
					"type": "uint256",
					"internalType": "uint256"
				},
				{
					"name": "payee",
					"type": "address",
					"internalType": "address"
				},
				{
					"name": "deadline",
					"type": "uint256",
					"internalType": "uint256"
				},
				{
					"name": "v",
					"type": "uint8",
					"internalType": "uint8"
				},
				{
					"name": "r",
					"type": "bytes32",
					"internalType": "bytes32"
				},
				{
					"name": "s",
					"type": "bytes32",
					"internalType": "bytes32"
				}
			],
			"outputs": [
				{
					"name": "",
					"type": "bytes32",
					"internalType": "bytes32"
				}
			],
			"stateMutability": "nonpayable"
		},
		{
			"type": "error",
			"name": "CouldntCollectPayment",
			"inputs": []
		}
	],
	"bytecode": {
		"object": "0x60803460b957601f610d6538819003918201601f19168301916001600160401b0383118484101760bd5780849260609460405283398101031260b95780516001600160a01b038116919082900360b95760208101516001600160a01b038116919082900360b957604001516001600160a01b038116929083900360b95760018060a01b03195f5416175f5560018060a01b0319600154161760015560018060a01b03196002541617600255604051610c9390816100d28239f35b5f80fd5b634e487b7160e01b5f52604160045260245ffdfe60806040526004361015610011575f80fd5b5f803560e01c80631b24bf52146105f557806367cebb701461048b57806372448d4d1461035e578063a7a6884d14610298578063a8270530146101d85763c26613731461005c575f80fd5b346101d55760e03660031901126101d55780610076610632565b602435610081610648565b6084359260ff841684036101d1576002546001600160a01b03918216949116843b156101cd576100d6918691604051938492839263d505accf60e01b845260c4359160a435918a60643591336004890161070a565b038183885af19081156101c25785916101a4575b5050906020926101459260018060a01b0360025416926040519261010d846106a3565b8352858301526001600160a01b031660408083019190915251630fba221960e41b8152958693849283919033908190600485016109fe565b03925af19081156101985790610161575b602090604051908152f35b506020813d602011610190575b8161017b602093836106be565b8101031261018c5760209051610156565b5f80fd5b3d915061016e565b604051903d90823e3d90fd5b816101b1919493946106be565b6101bd5790835f6100ea565b505050fd5b6040513d87823e3d90fd5b8580fd5b8480fd5b80fd5b50346101d55760203660031901126101d55780546040516328c44a9960e21b815260048035908201819052918390829060249082906001600160a01b03165afa90811561028d57606061024c610120610262959461025c94886020999261026a575b50500151868082518301019101610941565b01518480825183010191016109bf565b90610b4c565b604051908152f35b61028692503d8091833e61027e81836106be565b810190610855565b5f8061023a565b6040513d85823e3d90fd5b50346101d5576101203660031901126101d5576102b3610632565b6024356102be610648565b906102c761065e565b936102d06106fa565b6001546001600160a01b038681169116813b1561035a5791839161031a938360405180968195829463d505accf60e01b8452610104359160e435918d60a43591336004890161070a565b03925af1801561034f5761033a575b60206102628760643587878a610a3d565b6103458280926106be565b6101d55780610329565b6040513d84823e3d90fd5b8380fd5b50346101d55760a03660031901126101d5576004356044359160ff831683036101d55780546040516328c44a9960e21b815260048101849052908290829060249082906001600160a01b03165afa90811561034f576103d96101206103ea936060938691610471575b50015160208082518301019101610941565b0151602080825183010191016109bf565b8051600254602083015192956001600160a01b03918216939190921691823b156101d1579161044193918580946040519687958694859363d505accf60e01b8552608435926064359260243591336004890161070a565b03925af1801561034f5761045c575b60206102628585610b4c565b6104678280926106be565b6101d55780610450565b61048591503d8088833e61027e81836106be565b5f6103c7565b503461018c5761012036600319011261018c576104a6610632565b90602435906104b3610648565b91606435906001600160401b03821161018c573660238301121561018c5781600401356104df816106df565b926104ed60405194856106be565b818452366024838301011161018c57815f92602460209301838701378401015261051561065e565b9161051e6106fa565b60015490966001600160a01b03908116929116823b1561018c57610568975f91604051998a92839263d505accf60e01b8452610104359160e435918a60a43591336004890161070a565b038183865af19687156105ea57610145976105d5575b506020949560018060a01b0360015416936040519361059c85610674565b84528684015260018060a01b03166040830152606082015284604051809781958294636b72870760e01b8452339133916004860161074b565b602095505f6105e3916106be565b5f9461057e565b6040513d5f823e3d90fd5b3461018c5760a036600319011261018c576020610262610613610632565b61061b610648565b9061062461065e565b916064359160243590610a3d565b600435906001600160a01b038216820361018c57565b604435906001600160a01b038216820361018c57565b608435906001600160401b038216820361018c57565b608081019081106001600160401b0382111761068f57604052565b634e487b7160e01b5f52604160045260245ffd5b606081019081106001600160401b0382111761068f57604052565b90601f801991011681019081106001600160401b0382111761068f57604052565b6001600160401b03811161068f57601f01601f191660200190565b60c4359060ff8216820361018c57565b9360c095919897969360ff9360e087019a60018060a01b0316875260018060a01b031660208701526040860152606085015216608083015260a08201520152565b926001600160401b036101206020606080969998956080895260018060a01b0381511660808a01528281015160a08a015260018060a01b0360408201511660c08a01520151608060e08901528051918291826101008b0152018389015e5f828289010152601f80199101168601019616602085015260018060a01b0316604084015260018060a01b0316910152565b51906001600160401b038216820361018c57565b51906001600160a01b038216820361018c57565b5190811515820361018c57565b81601f8201121561018c57805190610826826106df565b9261083460405194856106be565b8284526020838301011161018c57815f9260208093018386015e8301015290565b60208183031261018c578051906001600160401b03821161018c57016101408183031261018c576040519161014083018381106001600160401b0382111761068f5760405281518352602082015160208401526108b4604083016107da565b60408401526108c5606083016107da565b60608401526108d6608083016107da565b608084015260a082015160a08401526108f160c083016107ee565b60c084015261090260e083016107ee565b60e08401526109146101008301610802565b6101008401526101208201516001600160401b03811161018c57610938920161080f565b61012082015290565b60208183031261018c578051906001600160401b03821161018c570160808183031261018c576040519161097483610674565b61097d826107ee565b835260208201516020840152610995604083016107ee565b604084015260608201516001600160401b03811161018c576109b7920161080f565b606082015290565b9081606091031261018c576109f660408051926109db846106a3565b6109e4816107ee565b845260208101516020850152016107ee565b604082015290565b81516001600160a01b03908116825260208084015190830152604092830151811692820192909252918116606083015291909116608082015260a00190565b600154600254604051610b089760209790966001600160a01b0394851696929490931692610a6a856106a3565b60018060a01b0316845287840152336040840152610ab3604051938885019060409060018060a01b038151168352602081015160208401528160018060a01b0391015116910152565b60608352610ac26080846106be565b60405193610acf85610674565b60018060a01b0316845286840152604083015260608201525f604051809681958294636b72870760e01b8452339133916004860161074b565b03925af19081156105ea575f91610b1d575090565b90506020813d602011610b44575b81610b38602093836106be565b8101031261018c575190565b3d9150610b2b565b6020610b7f5f9360018060a01b036002541690604051958680948193630fba221960e41b835233903390600485016109fe565b03925af19182156105ea575f92610c28575b506001546040516330088bc960e01b8152600481019290925260248201839052602090829060449082905f906001600160a01b03165af19081156105ea575f91610bee575b5015610bdf5790565b636c7b6f5560e11b5f5260045ffd5b90506020813d602011610c20575b81610c09602093836106be565b8101031261018c57610c1a90610802565b5f610bd6565b3d9150610bfc565b9091506020813d602011610c55575b81610c44602093836106be565b8101031261018c5751906020610b91565b3d9150610c3756fea264697066735822122052acb6ad302747e31250deb3a067549947d760cb2a3f671026cb363bcd37071664736f6c634300081a0033",
		"linkReferences": {}
	},
	"methodIdentifiers": {
		"buyErc20ForErc20(address,uint256,address,uint256,uint64)": "1b24bf52",
		"payErc20ForErc20(bytes32)": "a8270530",
		"permitAndBuyErc20ForErc20(address,uint256,address,uint256,uint64,uint256,uint8,bytes32,bytes32)": "a7a6884d",
		"permitAndBuyWithErc20(address,uint256,address,bytes,uint64,uint256,uint8,bytes32,bytes32)": "67cebb70",
		"permitAndPayErc20ForErc20(bytes32,uint256,uint8,bytes32,bytes32)": "72448d4d",
		"permitAndPayWithErc20(address,uint256,address,uint256,uint8,bytes32,bytes32)": "c2661373"
	},
	"id": 84
}